:0300000002020BEE
:03000B000201BF30
:10001B000201DA7E7300120A376D229D232E240112
:10002B00617A51827A4183E49364FFF5F809730096
:10003B00082E3401627A71827A6183E49364FFF54E
:10004B00E87EB30012047AB30012BEB008406BE432
:10005B007AB300127E7300100A477E0400647D346D
:10006B008D307A7300088D407E14000A7D347D211B
:10007B0012018D7A7300097E7300100A377D2112ED
:10008B00018D7A53000A74107AB3000B7AB3000C0B
:10009B007E7300110A477D348D307A73000D8D40CD
:1000AB007D347D2112018D7A73000E7E7300110A4F
:1000BB00377D2112018D7A53000F2275E900A9D7E4
:1000CB00BA75EA007593307594307591307592302E
:1000DB0075953C75963C75B17075B24075B33C75B2
:1000EB00B43C75C90C75CA0C75CBFF75CCFF75E1AB
:1000FB000075E20074207E34FE137E24007E7A1B92
:10010B00B0758900A9D289A9D689758AFF758CFF2C
:10011B00758BFF758DFFD28CD28ED2A9D2ABA9C0B5
:10012B008FA9C18FE47AB300126CAA74100A4A1912
:10013B00B400080BA0BEA00878F1E47AB300107AE3
:10014B00B30011D2AF74011201F512001E80F6013B
:10015B00020408102040803F065B4F666D7D077FD1
:10016B006F777C395E79710040761E7038375C731F
:10017B003E783D6750376EBF86DBCFE6EDFD87FFE0
:10018B00EF46C2D57CB430E708B2D56E24FFFF0B27
:10019B00247CB630E712B2D56E34FFFF0B348D32B0
:1001AB006E24FFFF0B2480028D3230D5066E34FF98
:1001BB00FF0B3422CAB8C0D120C703D38001C3922E
:1001CB00C77EB30010047AB30010D0D1DAB832CAAC
:1001DB00B8C0D120C603D38001C392C67EB3001131
:1001EB00047AB30011D0D1DAB8327CAB7E440FA0C5
:1001FB007D341B347D4378F87CBA147CAB78ED22CC
:10020B007584017E44041FE47A49B01B4478F97E5F
:06021B00F800120200C60B
:00000001FF
