:10000000020852020BB2020BB22222020BD37EB3C1
:1000100000085480BEB08068030200B27EB3000BBB
:100020001BB1682014682F24E16871242168030241
:1000300000B27E3402A47E2400FF7A1F00147E34B6
:10004000001280687E3402F77E2400FF7A1F0014BD
:100050007E34002980567EB3000A1468191468287B
:100060000BB1784E7E3402A07E2400FF7A1F00146C
:100070007E34000480367E3403247E2400FF7A1F01
:1000800000147E34000880247E34027E7E2400FF2B
:100090007A1F00147E340022801280167E3402B64D
:1000A0007E2400FF7A1F00147E3400417A3700124C
:1000B0008003020BB27E37000EBE37001250047A66
:0900C000370012020B93020BB28F
:1000CB00020573CAF87EF300087CBF5480B4801617
:1000DB007EB3000B70307EB3000A702A7E37000EA1
:1000EB00BE34000268030201C27CBF540F14681BAC
:1000FB0014683B0BB168030201C27EB3000D70069E
:10010B007EB3000C601E0201C280197EB30010B4D6
:10011B00040F7EB3000D60030201C27EB3000C60BE
:10012B00030201C27E3403207E2400FF80797EB35C
:10013B000010B404067EB3000D6002807A7E73005B
:10014B000C7CA75EA00F1B7068322E708078687EC7
:10015B002400017CBA60053E241478FB7E730018E2
:10016B006C665C754D33680A7E3403227E2400FF77
:10017B0080357E3403207E2400FF802B7E240001FB
:10018B007CBA60053E241478FB7E7300196C665CA8
:10019B00754D33680A7E3403227E2400FF80087E6F
:1001AB003403207E2400FF7A1F00147E3400027A71
:1001BB0037001280078000120BB28003120B93DA08
:1001CB00F822CAF87EB30010B40402800302027B4B
:1001DB0030000302027B20010302027BC201E47A9E
:1001EB00B300257AB300267AB300277AB300287AB6
:1001FB00B300297AB3002A7AB3002B7AB3002C7E92
:10020B00B3001A2481683724C0682F24E0682724A0
:10021B00F0681F24F868171BB2680F1BB16807142E
:10022B007822741E801A741F801674208012742119
:10023B00800E7422800A7423800674248002742535
:10024B007AB30027A9C7AFD200740E7E7001120BD0
:10025B006D6CFF74210A3F09730025120B6D0BF0B7
:10026B00BEF00878EE74117E7001120B6DA9D7AF3A
:10027B00DAF82222035300540043002000550053A8
:10028B0000420020004B006500790062006F0061A6
:10029B000072006400040309041201000200000054
:1002AB0040BF3403FF00010102000105010906A153
:1002BB0001050719E029E71500250175019508814E
:1002CB0002750895018101190029651500256575D1
:1002DB0008950681000508190129031500250175EC
:1002EB000195039102750595019101C00902290041
:1002FB000101008032090400000203010100092101
:10030B00010100012241000705810308000A0705CE
:10031B00010301000A0000010008035300540043CD
:10032B00007EB30010B404247EB30008B4021D7E1B
:10033B00B3000D60030203C17EB3000B70787EB374
:10034B00000A70727E37000E4D33680280687E6340
:10035B00000C7C765E700F1B60682B2E60807856CD
:10036B007E2400017CB760053E241478FB7C656E0F
:10037B0060FF5E6300187A630018740E120B6D74C5
:10038B00117E704080247E2400017CB760053E24E2
:10039B001478FB7C656E60FF5E6300197A6300194D
:1003AB00740E120B6D74147E7080120B6D740E6CC8
:1003BB0077120B6D8003020BB2020BC07EB30010E1
:1003CB00B404247EB30008B4021D7EB3000D600399
:1003DB000204567EB3000B70727EB3000A706C7E03
:1003EB0037000E4D33680280627E63000C7C765EB4
:1003FB00700F1B6068282E608078507E2400017C73
:10040B00B760053E241478FB7C654E6300187A6355
:10041B000018740E120B6D74117E701080217E24E7
:10042B0000017CB760053E241478FB7C654E6300AD
:10043B00197A630019740E120B6D74147E702012EE
:10044B000B6D740E6C77120B6D8003020BB2020BEB
:10045B00C07EB30010BEB00268207EB30008701AD5
:10046B007EB3000B70147EB3000D700E7EB3000CC8
:10047B0070087E37000E4D336803020BB27EB3005B
:10048B000AB4014774047AB30010E47AB300187A03
:10049B00B30019740E7E7001120B6D74127E7020F6
:1004AB00120B6D74107E7008120B6D740E7E700142
:1004BB00120B6D74126C77120B6D74137E70081225
:1004CB000B6D740E6C77120B6D801074037AB30086
:1004DB001074FF7AB300187AB30019020BC0CAF874
:1004EB00740E6C77120B6D7411120B587CFB30E28F
:1004FB000F74117C7F5E70FB120B6DE47AB30011ED
:10050B007CBF30E40A74117C7F4E7080120B6D7EC1
:10051B00B3001124FD68461468480BB278477CBFC2
:10052B0030E04274207E08000812090D7E37000E61
:10053B0012097E7A37000E7EB30008546024E068FF
:10054B000D24E0680E2440780F1206C480171209A0
:10055B00B38012120BD0800D120BB2800812065D05
:10056B008003120774DAF822CA7BCA6BCA5BCA4BC8
:10057B00CA3BCA2BCA1BCA0BC0D1C0D0C083C08216
:10058B007EF1FC7406120B587CEB7402120B587C38
:10059B00CB7404120B587CDB7CBE30E10312000AD7
:1005AB007CBE30E2031209467CBC30E0031204E946
:1005BB007CBC30E1031209E17CBD30E103120AB6C9
:1005CB007CBE30E0031200097AF1FCD082D083D0DC
:1005DB00D0D0D1DA0BDA1BDA2BDA3BDA4BDA5BDA77
:1005EB006BDA7B3253B2FC43B10374807E34FE076B
:1005FB007E24007E7A1BB07E34FE077E24007E7E36
:10060B001BB030E0F275DC0075F490E46C77120BE4
:10061B006D74017E7081120B6D74077E703F120B2F
:10062B006D74097E703F120B6D740B7E7007120B8D
:10063B006D74017E7001120B6D74027AB30010E4BD
:10064B007AB300117AB300187AB30019C200A9D794
:10065B00AF22CAF8740E6C77120B6D7411120B5813
:10066B0020E1537E370012BE34004028057EF04057
:10067B0080027CF774207E0F00147C7F120A0E0A16
:10068B002F7E3700129D327A3700120A157E1F001B
:10069B00142D317A1F00147E3700124D33780F74EE
:1006AB00117E700A120B6DE47AB30011800874117D
:1006BB007E7002120B6DDAF8227EB30009BEB00D0C
:1006CB0050507EA003A49006D5730206FC0206FFD1
:1006DB0002071D02070202071D0207050207080297
:1006EB00070B02070E020711020714020717020776
:1006FB001A0200CE02032C0203C70207C102000E2E
:10070B000200C602072002045C0208CF020A8E0216
:10071B000BCD020BB27EB30008B480227EB3000B6C
:10072B00701C7EB3000A70167EB3000D70107EB382
:10073B00000C700A7E37000EBE3400016803020BFA
:10074B00B27EB30010B4040A7E3403227E2400FF71
:10075B0080087E3403207E2400FF7A1F00147E3431
:10076B0000017A370012020B93740E6C77120B6D2B
:10077B007411120B5830E03D74207E0F00141209D7
:10078B000D0A1B7E2700129D217A2700127E1F0067
:10079B00142D317A1F00147E3700124D33780E74EE
:1007AB00117E7048120B6DE47AB300112274117E26
:1007BB007040020B6D22CAF87EB3000870237EB323
:1007CB00000D701D7EB3000C70177EB3000B701103
:1007DB007EF3000ABEF08050087E37000E4D336862
:1007EB0005120BB28017E47C7F120B6D4CFF680473
:1007FB007403800274027AB30010120BC0DAF82271
:10080B007594007593007580FFC28600007EA180F1
:10081B005EA00FD286C2870000E580540FC454F04F
:10082B004CABD2877EB3001ABCBA680B7AA3001A02
:10083B0074147AB3001B227EB3001B6009147AB3C5
:10084B00001B7002D201227584017E44041FE47ADE
:10085B0049B01B4478F97EF8002C7E0400FF7E140F
:10086B000BD60B0A405D44681A692000020B0E0B75
:10087B0044800A7E0BB07A29B00B240B0C1B4478F6
:10088B00F280DF020B037E1400007E040001740172
:10089B00120B3FB4012D53B4FE53B3FE53CC1F5375
:1008AB00CB1FC2C0900000E020E003D38001C392B5
:1008BB00EF20E103D38001C392EE20E203D380014A
:1008CB00C392ED227EB30010B4041D7EB30008B4B6
:1008DB0081167EB3000B70107EB3000D700A7E374D
:1008EB00000EBE3400016803020BB27E3403207E7F
:1008FB002400FF7A1F00147E3400017A37001202A5
:10090B000B93CA3B7F307AB300217416120B587AC3
:10091B00B300227AB30023800C7EB30021120B5854
:10092B007A3BB00B747EA300227CBA147AB30022FC
:10093B004CAA78E57EB30023DA3B22E46C77120BEA
:10094B006D74027AB30010E47AB30011740E7E70EA
:10095B0001120B6D74117E7048120B6D740E7E704C
:10096B0001120B6D74147E7090120B6D740E6C77FC
:10097B00020B6D7A3700217E3400227E2400007E2C
:10098B001B307E3400237E2400007A1B307E340023
:10099B00217E2400007E1B307E3400247E24000048
:1009AB007A1B307E370023227EB300091BB16817F8
:1009BB0014681A24FA680D146810146813240A7842
:1009CB0012020A3A020A64020ADD020B2102000338
:1009DB00020006020BB2CAF8740E7E7001120B6D88
:1009EB007411120B587CFB30E50874117E704012A9
:1009FB000B6D7CBF30E20774116C77120B6DC2006C
:100A0B00DAF822CA3B7A7300227F307AB300218056
:100A1B000C7EB300217E3B700B74120B6D7EA3001A
:100A2B00227CBA147AB300224CAA78E5DA3B227EF8
:100A3B00B30010B404097EB30008BEB0A168030272
:100A4B000BB27E3400007E2400017A1F00147E3727
:100A5B00000E7A370012020B937EB30010B4040918
:100A6B007EB30008BEB0216803020BB27E340000D7
:100A7B007E2400017A1F00147E37000E7A37001295
:100A8B00020BA47EB30010B4041B7EB30008B401A8
:100A9B00147EB3000B700E7EB3000D70087E370012
:100AAB000E4D336803020BB2020BC0CAF8740E7EF4
:100ABB007001120B6D7414120B587CFB30E608742A
:100ACB00147E7080120B6D7CBF30E003120891DA3C
:100ADB00F8227EB30010B404097EB30008BEB0A1A7
:100AEB006803020BB27E18001C7A1F00147E3400C0
:100AFB00017A370012020B9375E900A9D7BA75EA90
:100B0B00001205EF120B80D2AF1201CD3002FAC2E8
:100B1B000212080B80F37EB30010B404097EB300FD
:100B2B0008BEB0216803020BB27E73000B7A730010
:100B3B001C020BC0CAF80A5B2E54002012090D7C54
:100B4B00FB74146C77120B6D7CBFDAF8227CABE56F
:100B5B00FC20E7FB7CBA4480F5FCE5FC20E7FBE5D9
:100B6B00EC227CA77C7BE5FC20E7FB7CB7547FF574
:100B7B00FC7AA1EC22C202A9D78E5389F0758A4068
:100B8B00758CA2D28CD2A92274037AB30011741182
:100B9B007E7040120B6D02065D74047AB300117403
:100BAB00117E7040020B6D74057AB3001174117EC7
:100BBB007060020B6DE47AB3001174117E70480201
:100BCB000B6D020BB2020BB2D202320001001A0003
:070BDB000001001B000000F7
:00000001FF
