:10000000020577CAB8CA1BC0D17E34FA527E2400DA
:100010007E7E1BB030E00A7E1BB054FE7A1BB0D24D
:10002000017E1BB030E2087E1BB054FB7A1BB07E11
:1000300034FA5A7E24007E7E1BB030E00A7E1BB06C
:1000400054FE7A1BB0D2007E1BB030E1087E1BB09C
:1000500054FD7A1BB0D0D1DA1BDAB8327AB1ADA92F
:0A006000A1ACE43368F9A9C1AC2299
:10006B0002000375E900A9D7BA75EA0075933075DC
:10007B00943075913275923275953C75963C75B18D
:10008B005075B25075B33C75B43C75C90C75CA0C40
:10009B0075CBFF75CCFF75E10075E2006D337CB756
:1000AB007D232E2400007A51827A4183F00B34BEDB
:1000BB0034010078E9E41200FA7E1405997E0400FD
:1000CB00FF1201E01204E0D2AFC201C2003001FD09
:1000DB003000FAC20174C07E34FA517E24007E7A5D
:1000EB001BB0C20074A17E34FA597A1BB080DE7C3F
:1000FB007BA5BF020C7E34FFD012055F75AC108060
:10010B001275AC5075D4FF75D5D0A9C2DDA9D1DD60
:0B011B00A9D3DDA9C1BA2228302900B9
:03012B000201DDF1
:030133000201DDE9
:03013B000201DDE1
:030143000201DDD9
:03014B000201DDD1
:030153000201DDC9
:03015B000201DDC1
:030163000201DDB9
:03016B000201DDB1
:030173000201DDA9
:03017B000201DDA1
:030183000201DD99
:03018B000201DD91
:030193000201DD89
:03019B000201DD81
:0301A3000201DD79
:0301AB000201DD71
:0301B3000201DD69
:0301BB000201DD61
:0301C3000201DD59
:0301CB000201DD51
:0301D3000201DD49
:1001DB00800002006B7F507EC400007ED400497EFD
:1001EB009401F10202394001227CEACA89CA5BCA36
:1001FB006B12058DDA6BDA5BDA897E9401F17CAEDA
:10020B0022540F2490D43440D430F30CBEB0414070
:10021B0007BEB05B500224204CCC68021BC00B8481
:10022B00D389944CCC680B742012022380F5CA3B03
:10023B006D889F337CAE7E5BB00B5C7007C37D38E3
:10024B00DA3B8994B42569C2F37E5BB00B5CA5F8ED
:10025B0024D0BEB00A501B7E500A20F60DAC5CA514
:10026B002D7CCB70034EF00180DDAC5DA52D7CDBCE
:10027B0080D524CFBEB01AA5E850055E00DFD2F3BF
:10028B009004AFA3E4936011BCB078F77414934C53
:10029B00AB30F6B34EF08080AEA3E4936010BCB0ED
:1002AB0078F77413937C3B741D937C2B89147CB06F
:1002BB008013742012022320F205BEC00250F31BE0
:1002CB006D29B6000112022302022E1B6E69160065
:1002DB00020B6A00BE08000078087E0400FF7E1443
:1002EB00012220F21E4CCC681A7F10E47E1B804C3E
:1002FB008868070B1C04BCBD78F2C2F6CA0B12044B
:10030B000DDA0B7E0BB060C0CA0B120223DA0B0B9B
:10031B000C4CDD68EE1BD078EA80ADD2F07E10106D
:10032B0080037E10085EB05F800AD2F67E100A80D2
:10033B00057E100AC2F66D119F117E00201B6C7E8C
:10034B006B7030F6021A3720F1051B6C7E6B603038
:10035B00F6041A261A2430F0051B6D0B6A20A5EC47
:10036B003382F692F6500A7CEA9F229F217F127C01
:10037B00AE4C44780F7C457C567C676C772E00F82E
:10038B0078EF80122F117CB3337C3B9CB140047C03
:10039B003B0B70A5D8EE7CB230E005DAB8C44C3B11
:1003AB00CA380B207E00207E3000BE18000078C1BA
:1003BB00BE1008780730F404C2F480B5CA287CB2AA
:1003CB00BCBD38027CBD12040DDA28BC2D500A1BB3
:1003DB00D0E4CA2812020C80F07CB213DAB84004C5
:1003EB00C4CAB8C4CA28BEF08040095CDD7805A534
:1003FB00DA0260065EF07F12020CDA28A5DADA0266
:10040B00022EBEF001680F30F402240220F5062004
:10041B00F70330F6010420F229BCBC5025CAB87C86
:10042B00BF13B0E67420501174307C8A5E80F06884
:10043B000812044D5EA00F8003120223DAB8BCBC75
:10044B0078DB30F40F7430120223745830F30274DB
:10045B007812022330F605742D020223742B20F53B
:10046B00F8742020F7F3221B6C7E6BB010F1021B8B
:10047B006C20F60B30E704F404D2F27CCB80052021
:10048B00E7057CDB0202525EF07F80F81B6E69167B
:10049B0000020B6A0030F0076D221B0A200B0D1BAC
:1004AB000A8002023D2D2B204C4248232E0053582C
:1004BB004F44494355502A4E00042080010200103E
:1004CB0040D6282D3535C23C267297020303030311
:1004DB00020303040474807E34FA507E24007E7A77
:1004EB001BB0E47E34FA527A1BB074FF7E34FA539D
:1004FB007A1BB0E47E34FA907A1BB07E5400000A6B
:10050B001A7E34FA557A1BA07CAB7E34FA567A1BD2
:10051B00B074C07E34FA517A1BB074807E34FA58B2
:10052B007A1BB0E47E34FA5A7A1BB074FF7E34FA2D
:10053B005B7A1BB0E47E34FA927A1BB07E34FA5DA0
:10054B007A1B307E34FA5E7A1BA074A17E34FA5982
:10055B007A1BB022A9C48EA9C38EA9D28E0A56F5D6
:10056B00D67D53F5D7A9C2AFA9D48E227584017E4F
:10057B0044041FE47A49B01B4478F97EF800480222
:10058B00006ECAF87CFB12005C7CBFDAF822535475
:10059B004333324720554152543320444D4120546C
:1005AB006573742050726F6772616D6D65210D0AF2
:0105BB00003F
:00000001FF
