:1000000002017DCAF8E47E34FEB57E24007E7A1BB0
:10001000B07E14FEE47E04007E7A0BB06CFF7E544A
:10002000FEE57E44007E7A2BF07E54FEE67A2BF0CD
:100030007E54FEF07A2BF07EF0067E54FEF17A2B91
:10004000F06CFF7E54FEF27A2BF07EF0F97E54FEC7
:10005000F37A2BF07EF0687E54FEEB7A2BF06CFF87
:100060007E54FEFB7A2BF07EF0577E54FEFC7A2BFA
:10007000F06CFF7E54FEEC7A2BF07EF0507E54FE46
:10008000ED7A2BF06CFF7E54FEB67A2BF074017A79
:100090000BB074807E14FEFD7A0BB074817E14FE6A
:1000A000E07A0BB074017E14FEE77A0BB074407AEC
:1000B0001BB0DAF82253DD0F43DD2075D2BB75D3B8
:1000C000A4E47E34FEAC7E24007E7A1BB043DD10B7
:0400D00043DD80226A
:1000DB000200DECA59CA1BC0D1C083C0827E34FE67
:1000EB00E57E24007E7E1BA0E47A1BB07E34FEE608
:1000FB007A1BB07CBA30E02C7EA300080A3A2E346F
:10010B0001937A71827A6183E4937E34FEFC7E24C0
:10011B00007E7A1BB07CBA047AB30008B41405E4F1
:10012B007AB30008D082D083D0D1DA1BDA5932757A
:10013B00E90075EA00A9D7BA75930075948075919B
:10014B000075920075950075960075B10075B2003B
:10015B0075B30075B40075C90075CA0075CB007511
:10016B00CC0075E10075E2001200B5120003D2AFAE
:10017B0080FE7584017E44041FE47A49B01B4478E9
:10018B00F97EF8000802013A7DA3C5E1F2F8F2E12D
:0C019B00C5A37D57351908020819355717
:00000001FF
