:100000000201657EF400017E14001812017B7F213D
:10001000800F7EE40002ADFE1E541E4450034EA02D
:1000200080BE28FFFF38EB1B2C1BF47E34FED27EF3
:1000300024007E7A1BA07E34FED37A1BB07D1F0A7B
:10004000127E34FED07A1B307D3F7C377E34FED169
:100050007A1B3074017E34FEC47A1BB07E34FEC03D
:100060007E1BB044817A1BB0227EF400017E140016
:100070001812017B7F21800F7EE40002ADFE1E542A
:100080001E4450034EA080BE28FFFF38EB1B2C1BE4
:10009000F47E34FEF27E24007E7A1BA07E34FEF3D2
:1000A0007A1BB07D1F0A127E34FEF07A1B307D3F32
:1000B0007C377E34FEF17A1B3074017E34FEE47AA4
:0F00C0001BB07E34FEE07E1BB044817A1BB02261
:0300D30002012FF8
:1000DB0002014A75E900A9D7BA75EA007593307524
:1000EB00943075913075923075953C75963C75B121
:1000FB005075B25075B33C75B43C75C90C75CA0CD0
:10010B0075CBFF75CCFF75E10075E2007E1803E837
:10011B001200037E344B407E24004C120069C2C097
:10012B00D2AF80FECAB8CA1BC0D1E47E34FEC57EF6
:10013B0024007E7A1BB0B2E8D0D1DA1BDAB832CA0F
:10014B00B8CA1BC0D1E47E34FEE57E24007E7A1B48
:10015B00B0B2ECD0D1DA1BDAB8327584017E44042C
:10016B001FE47A49B01B4478F97EF800070200DEE1
:09017B007D02AD31AD102D2122F1
:00000001FF
