:1000000002064D7F507EC400007ED400387E9400EE
:100010001402005C4001227CEACA89CA5BCA6B12E6
:100020000681DA6BDA5BDA897E9400147CAE2254A6
:100030000F2490D43440D430F30CBEB0414007BEFE
:10004000B05B500224204CCC68021BC00B84D389C7
:10005000944CCC680B742012004680F5CA3B6D8826
:100060009F337CAE7E5BB00B5C7007C37D38DA3BA0
:100070008994B42569C2F37E5BB00B5CA5F824D0EB
:10008000BEB00A501B7E500A20F60DAC5CA52D7C3C
:10009000CB70034EF00180DDAC5DA52D7CDB80D5FF
:1000A00024CFBEB01AA5E850055E00DFD2F390025F
:1000B000D2A3E4936011BCB078F77414934CAB30C6
:1000C000F6B34EF08080AEA3E4936010BCB078F736
:1000D0007413937C3B741D937C2B89147CB0801328
:1000E000742012004620F205BEC00250F31B6D2999
:1000F000B600011200460200511B6E691600020B89
:100100006A00BE08000078087E0400FF7E14069B8B
:1001100020F21E4CCC681A7F10E47E1B804C88684D
:10012000070B1C04BCBD78F2C2F6CA0B120230DA0F
:100130000B7E0BB060C0CA0B120046DA0B0B0C4CE6
:10014000DD68EE1BD078EA80ADD2F07E101080031F
:100150007E10085EB05F800AD2F67E100A80057EAF
:10016000100AC2F66D119F117E00201B6C7E6B7011
:1001700030F6021A3720F1051B6C7E6B6030F604F6
:100180001A261A2430F0051B6D0B6A20A5EC338269
:10019000F692F6500A7CEA9F229F217F127CAE4C99
:1001A00044780F7C457C567C676C772E00F878EF9E
:1001B00080122F117CB3337C3B9CB140047C3B0B01
:1001C00070A5D8EE7CB230E005DAB8C44C3BCA3832
:1001D0000B207E00207E3000BE18000078C1BE10CB
:1001E00008780730F404C2F480B5CA287CB2BCBDDC
:1001F00038027CBD120230DA28BC2D500A1BD0E434
:10020000CA2812002F80F07CB213DAB84004C4CAA6
:10021000B8C4CA28BEF08040095CDD7805A5DA02C2
:1002200060065EF07F12002FDA28A5DADA020051AC
:10023000BEF001680F30F402240220F50620F70317
:1002400030F6010420F229BCBC5025CAB87CBF138B
:10025000B0E67420501174307C8A5E80F068081219
:1002600002705EA00F8003120046DAB8BCBC78DBD7
:1002700030F40F7430120046745830F30274781260
:10028000004630F605742D020046742B20F5F874F4
:100290002020F7F3221B6C7E6BB010F1021B6C2048
:1002A000F60B30E704F404D2F27CCB800520E7059E
:1002B0007CDB0200755EF07F80F81B6E6916000221
:1002C0000B6A0030F0076D221B0A200B0D1B0A8001
:1002D0000200602D2B204C4248232E0053584F44DF
:1002E000494355502A4E000420800102001040F975
:1002F0004B505858E55F4995BA00010101010001D2
:10030000010202CA3B7D607D717A1F0008120672ED
:1003100040FBC2A274031206907E1F00087CB51237
:1003200006907E1F00087CB61206907E2F000812F1
:1003300006907D377D26120471D2A27E1406D47EEB
:100340000400FF1200037D367E2400017A1F000C9A
:100350006D6680377E0F000C7E0B700B147A0F00D9
:100360000C0A377A3700367E1406CD7E0400FF1261
:1003700000037D365E34000FBE34000F780B7E1410
:1003800006BF7E0400FF1200030B64BD7638C57EF5
:100390001406BC7E0400FF120003DA3B22CA3BC2F3
:1003A000A2749F120690E41206907AB30008E41239
:1003B00006907AB30009E41206907AB3000AD2A23A
:1003C0007E1406EE7E0400FF1200037E7300080A0E
:1003D000377A3700367E7406E87E6400FF7F0312AA
:1003E00000037E7300090A377A3700367F03120054
:1003F000037E73000A0A377A3700367E1406E07EE1
:100400000400FF120003DA3B221205321205DE7EE1
:100410001406F87E0400FF12000312039D9F117E54
:100420001400807E0400001203039F111206209F17
:10043000117E1400807E0400001203036D337CB72C
:100440007D232E2401007A51827A4183F00B34BE41
:1004500034008048E99F117E1400807E0401001260
:10046000058E9F117E1400807E040000120303801D
:10047000FE7D427D031B04E47E34FA387E24007E38
:100480007A1BB07E34FA3A7A1BB07E34FA3B7A1B80
:10049000107E34FA8A7A1B007E34FA3E7A1B907EF4
:1004A00034FA3D7A1B8074A17E34FA397A1BB07D10
:1004B000300B347D241204D67E34FA3A7E24007E3A
:1004C0007E1BB030E0F2E47A1BB07E34FA397E2431
:1004D000007E7A1BB0227D427D031B04E47E34FA49
:1004E000307E24007E7A1BB07E34FA327A1BB07ED6
:1004F00034FA337A1B107E34FA887A1B007E34FA81
:10050000367A1B907E34FA357A1B8074C07E34FABA
:10051000317A1BB07E34FA327E24007E7E1BB030EE
:10052000E0F2E47A1BB07E34FA317E24007E7A1B3E
:10053000B02275E900A9D7BA75EA007593307594B1
:100540003075913275923275953C75963C75B15007
:1005500075B25075B33C75B43C75C90C75CA0C7551
:10056000CBFF75CCFF75E10075E200A9D0BA7E34EF
:10057000FDB47E24007E7E1BB044017A1BB0759AC8
:100580005275D7CC75D6FFA9D28EA9D48E22CA3B7C
:100590007A0700087F317A17000A802C120663C29E
:1005A000A274021206907CBD1206907CBE120690C8
:1005B0007CBF1206907E37000A7E2700081204D600
:1005C0006D337A37000AD2A27E37000A4D3378CCD9
:1005D0007E1406B07E0400FF120003DA3B22A9D28B
:1005E000BBA9C3BB75981074107E34FDC07E240077
:1005F0007E7A1BB07E1BB054BF7A1BB07E1BB054FA
:10060000FB7A1BB07E1B307A1B3074027E14FDC354
:100610007E04007E7A0BB07E1BB044087A1BB022A9
:10062000CA3B7F31120663C2A274201206907CB5C9
:100630001206907CB61206907CBF120690D2A27E63
:1006400014069F7E0400FF120003DA3B227584012A
:100650007E44041FE47A49B01B4478F97EF80037E1
:1006600002040912067240FBC2A27406120690D25E
:10067000A222C2A27405120690E4120690D2A2131E
:10068000227CABA9319AFCA9C19A7AA19B7CBA229F
:10069000C2997AB1993099FDE5992228302900450F
:1006A0007261736520536563746F7220210D0A00B7
:1006B00050726F6772616D20210D0A000D0A000DE6
:1006C0000A20202020202020202020200025303239
:1006D000627820005265616444617461203A2000B0
:1006E00025303262780D0A0025303262780052657A
:1006F00061644944203A20000D0A55534152545F29
:100700005350495F444D41207465737420210D0A94
:0107100000E8
:00000001FF
