:06000000020195D200325E
:10000B000200036466696B6E707375787A7C7F810E
:10001B008386888A8D8F91939597999C9EA0A2A396
:10002B00A5A7A9ABACAEB0B1B3B4B6B7B8BABBBCAD
:10003B00BDBEBFC0C1C2C3C4C4C5C6C6C7C7C7C87F
:10004B00C8C8C8C8C8C8C8C8C7C7C7C6C6C5C4C437
:10005B00C3C2C1C0BFBEBDBCBBBAB8B7B6B4B3B1E7
:10006B00B0AEACABA9A7A5A3A2A09E9C9997959364
:10007B00918F8D8A888683817F7C7A787573706E79
:10008B006B696664625F5D5A585553504E4C4947D5
:10009B004542403E3B39373533312F2C2A28262514
:1000AB0023211F1D1C1A181715141211100E0D0CDD
:1000BB000B0A0908070605040403020201010100EB
:1000CB000000000000000000010101020203040413
:1000DB0005060708090A0B0C0D0E10111214151743
:1000EB00181A1C1D1F21232526282A2C2F313335A6
:1000FB0037393B3E40424547494C4E505355585A71
:10010B005D5F6275E900A9D7BA75EA007594007551
:10011B00930075920075910075960075950075B2F8
:10012B000075B10075B40075B30075CA0075C900D0
:10013B0075CC0075CB0075E20075E10075985275B2
:10014B008EC0758900758BD0758DFFD28E758A0028
:10015B00758C50D28CD2A9D2AFC200E4802630006D
:10016B00FDC2007EB300081201AB7E7300080A3794
:10017B002E34000E7A71827A6183E4931201AB7E86
:10018B00B30008047AB3000880D47584017E44045C
:10019B001FE47A49B01B4478F97EF8002002010E67
:0D01AB007CAB3099FDC2997AA1997CBA22F3
:00000001FF
