:0200000400FFFB
:1000000002009E75E900A9D7BA75EA0075933075AC
:10001000943075913075923075953C75963C75B1FC
:100020005075B25075B33C75B43C75C90C75CA0CAB
:1000300075CBFF75CCFF75E10075E200C2C0C2E868
:1000400074FA120088D2E8C2E974FA120088D2E980
:10005000C2EA74FA120088D2EAC2EB74FA1200887B
:10006000D2EBC2EC74FA120088D2ECC2ED74FA1230
:100070000088D2EDC2EE74FA120088D2EEC2EF749C
:10008000FA120088D2EF80B67CAB7E440FA07D349C
:100090001B347D4378F87CBA147CAB78ED227584F0
:1000A000017E44041FE47A49B01B4478F97EF800CD
:0400B0000702000340
:00000001FF
