:1000000002118D021213021213222202113E7A37BC
:1000100000397E34003A7E2400007E1B307E34009E
:100020003B7E2400007A1B307E3400397E240000A1
:100030007E1B307E34003C7E2400007A1B307E37ED
:10004000003B22020EA575E900A9D7BA75EA007532
:1000500093007594007591007592007595007596E2
:100060000075B10075B20075B30075B40075C900B4
:1000700075CA0075CB0075CC0075E10075E200A96A
:10008000D1BAA9D0BAC2EF22021213020EE7CA3BBC
:100090007F307AB3003974161211B87AB3003A7A05
:1000A000B3003B800C7EB300391211B87A3BB00B21
:1000B000747EA3003A7CBA147AB3003A4CAA78E56D
:0700C0007EB3003BDA3B2296
:1000CB00020777CA797EB30011B4040280030202DF
:1000DB00A72000577E730038BE730034684DA9C744
:1000EB00AFD200740E7E70041211E16CFF80277486
:1000FB00247EA300347C7A0B707A7300340A3A2E78
:10010B003403007A71827A61837EEB701211E10BFA
:10011B00F0BEF040680A7E730038BE73003478CFAF
:10012B0074117E70011211E1A9D7AF2001577E73B4
:10013B000037BE730033684DA9C7AFD201740E7E72
:10014B0070051211E16CFF802774257EA300337CB0
:10015B007A0B707A7300330A3A2E3402007A71826A
:10016B007A61837EEB701211E10BF0BEF040680AEE
:10017B007E730037BE73003378CF74117E7001121B
:10018B0011E1A9D7AF20076A7E730036BE73003228
:10019B0068607EA300327CBA047AB300320A3A2E2E
:1001AB003401007A71827A61837EEBE0D2077EB3F1
:1001BB00002714680F1468161468201468040BB217
:1001CB00781C80127AE1E020D00C800F80087AE155
:1001DB00E030D0028005A9C3AC8003A9D3AC7AE18F
:1001EB00ADBEE07F78077EB3001C048001E47AB3D8
:1001FB00001C2006597E730035BE730031684F7E9C
:10020B00A300317CBA047AB300310A3A2E340000D1
:10021B007A71827A61837EEBE0D2067EB3002E1474
:10022B00680F1468161468201468040BB2781C80CD
:10023B00127AE1E020D00C800F80087AE1E030D018
:10024B00028005A9C39A8003A9D39A7AE19B300255
:10025B0024A9C7AF7E7300369E730032BE70C050A8
:10026B0011C202740E7E70041211E174146C7712B9
:10027B0011E1A9D7AF300324A9C7AF7E7300359E18
:10028B00730031BE70C05011C203740E7E70051224
:10029B0011E174146C771211E1A9D7AFDA7922CA84
:1002AB00F87EF300087CBF5480B480167EB3000B3D
:1002BB0070307EB3000A702A7E37000EBE34000207
:1002CB0068030203B17CBF540F14681B14683C0B0A
:1002DB00B168030203B17EB3000D70067EB3000C50
:1002EB00601E0203B180197EB30011B4040F7EB3FC
:1002FB00000D60030203B17EB3000C60030203B177
:10030B007E34056E7E2400FF0203A17EB30011B480
:10031B0004067EB3000D60030203B17E73000C7CF8
:10032B00A75EA00F1B7268431B70683F2E7082681C
:10033B000D1B7068091B7068052E700378687E248E
:10034B0000017CBA60053E241478FB7E7300196CA7
:10035B00665C754D33680A7E3405707E2400FF8021
:10036B00357E34056E7E2400FF802B7E2400017CBD
:10037B00BA60053E241478FB7E73001A6C665C75BC
:10038B004D33680A7E3405707E2400FF80087E346E
:10039B00056E7E2400FF7A1F00157E3400027A372B
:1003AB0000138007800012121380031211F4DAF885
:1003BB00227EB30011BEB00268207EB30008701A13
:1003CB007EB3000B70147EB3000D700E7EB3000C69
:1003DB0070087E37000E4D3368030212137EB30094
:1003EB000AB40102800302049A74047AB30011E484
:1003FB007AB300197AB3001A740E7E70021211E1EF
:10040B0074127E70201211E174107E70081211E1CB
:10041B00740E7E70031211E174127E70201211E1C2
:10042B0074107E70081211E1740E7E70041211E1CB
:10043B0074127E70201211E174107E70081211E19B
:10044B00740E7E70051211E174127E70201211E190
:10045B0074107E70081211E1740E7E70041211E19B
:10046B0074126C771211E174137E70081211E1741F
:10047B000E7E70051211E174126C771211E1741378
:10048B007E70081211E1740E6C771211E1801074FA
:10049B00037AB3001174FF7AB300197AB3001A020E
:1004AB0012211E035300540043002000550053003B
:1004BB0042002000530065007200690061006C006F
:1004CB000403090412010002EF020140BF340AFFCA
:1004DB0000010102000109028D00040100803208B5
:1004EB000B000202020100090400000102020100DC
:1004FB000524001001052401000104240202052437
:10050B00060001070582034000FF09040100020AEF
:10051B0000000007058402400000070504024000AC
:10052B0000080B0202020201000904020001020290
:10053B00010005240010010524010001042402021E
:10054B000524060001070583034000FF090403008F
:10055B00020A00000007058502400000070505029E
:10056B004000000000010008035300540043007ECC
:10057B00B30011B4042A7EB30008B402237EB30087
:10058B000D60030206267EB3000B60030206267E77
:10059B00B3000A60030206267E37000E4D33680255
:1005AB0080797E63000C7C765E700F1B62683C1B4F
:1005BB006068382E6082680D1B6068091B606805D7
:1005CB002E600378567E2400017CB760053E241410
:1005DB0078FB7C656E60FF5E6300197A63001974AB
:1005EB000E1211E174117E704080247E2400017C78
:1005FB00B760053E241478FB7C656E60FF5E63007C
:10060B001A7A63001A740E1211E174147E70801240
:10061B0011E1740E6C771211E180030212130212B6
:10062B00217EB30011B4042A7EB30008B402237EEA
:10063B00B3000D60030206D27EB3000B600302060B
:10064B00D27EB3000A60030206D27E37000E4D3312
:10065B00680280737E63000C7C765E700F1B626891
:10066B00391B6068352E6082680D1B6068091B6042
:10067B0068052E600378507E2400017CB760053E30
:10068B00241478FB7C654E6300197A630019740E91
:10069B001211E174117E701080217E2400017CB751
:1006AB0060053E241478FB7C654E63001A7A630068
:1006BB001A740E1211E174147E70201211E1740E73
:1006CB006C771211E180030212130212217EB30028
:1006DB00085480BEB08068030207637EB3000B1B17
:1006EB00B168191468280BB1786E7E3404CF7E2460
:1006FB0000FF7A1F00157E34001280547E3404E113
:10070B007E2400FF7A1F00157E34008D80427EB35D
:10071B00000A1468191468280BB1783C7E3404CB9A
:10072B007E2400FF7A1F00157E34000480227E3465
:10073B0005727E2400FF7A1F00157E34000880109E
:10074B007E3404AD7E2400FF7A1F00157E34001E1C
:10075B007A370013800580000212137E37000EBE1D
:10076B0037001350047A3700130211F4CA7BCA6B9B
:10077B00CA5BCA4BCA3BCA2BCA1BCA0BC0D1C0D05F
:10078B00C083C0827EF1FC74061211B87CEB74023C
:10079B001211B87CCB74041211B87CDB7CBE30E137
:1007AB000312000A7CBE30E2031209197CBC30E054
:1007BB00031208137CBC30E20312109F7CBC30E3A5
:1007CB00031210CA7CBC30E4031210197CBC30E558
:1007DB00031210467CBD30E403120A057CBD30E5E4
:1007EB0003120A737CBE30E0031200097AF1FCD0CD
:1007FB0082D083D0D0D0D1DA0BDA1BDA2BDA3BDA0A
:10080B004BDA5BDA6BDA7B32CAF8740E6C77121147
:10081B00E174111211B87CFB30E20F74117C7F5E16
:10082B0070FB1211E1E47AB300127CBF30E40A745E
:10083B00117C7F4E70801211E17EB3001224FD6893
:10084B00461468480BB278477CBF30E04274207E78
:10085B0008000812008E7E37000E12000E7A370049
:10086B000E7EB30008546024E0680D24E0680E246B
:10087B0040780F120C75801712115C8012120088D1
:10088B00800D1212138008120B488003120CD1DA60
:10089B00F822759A5075D7CC75D6FFA9D28EA9D4EC
:1008AB008EA9D0AF75AC5075D5CC75D4FF53DDF098
:1008BB0043DD0AA9D3AF7E3401007E2400C27A1F28
:1008CB000022E47AB300267AB3002774087AB300C7
:1008DB00287A1F0029E47AB3002D7AB3002E74080E
:1008EB007AB3002FC207C206E47AB300327AB300A0
:1008FB00317AB300367AB300357AB300347AB30069
:10090B00337AB300387AB300377AB3003022E46C11
:10091B00771211E174027AB30011E47AB300127406
:10092B000E7E70021211E174117E70481211E17487
:10093B000E7E70031211E174117E70481211E17476
:10094B000E7E70041211E174117E70481211E17465
:10095B000E7E70051211E174117E70481211E17454
:10096B000E7E70041211E174147E70901211E174FA
:10097B000E7E70051211E174147E70901211E174E9
:10098B000E6C770211E153B2FC43B10374807E34D9
:10099B00FE077E24007E7A1BB07E34FE077E240089
:1009AB007E7E1BB030E0F275DC0075F490E46C7762
:1009BB001211E174017E70091211E174077E703F10
:1009CB001211E174097E703F1211E1740B7E7007F6
:1009DB001211E174017E70011211E174027AB300FD
:1009EB0011E47AB300127AB300197AB3001AC20079
:1009FB00C201C202C203A9D7AF22CAF8740E7E701D
:100A0B00041211E174141211B87CFB30E608741453
:100A1B007E70801211E17CBF30E04A74161211B85F
:100A2B007CFB802174241211B87CAB7E7300367C66
:100A3B00B7047AB300360A372E3401007A71827A02
:100A4B0061837AEBA07CAF1BF04CAA78D77E730046
:100A5B00369E730032BE70C04004D20280077414FD
:100A6B006C771211E1DAF822CAF8740E7E70051257
:100A7B0011E174141211B87CFB30E60874147E700B
:100A8B00801211E17CBF30E04A74161211B87CFB66
:100A9B00802174251211B87CAB7E7300357CB704B2
:100AAB007AB300350A372E3400007A71827A61836B
:100ABB007AEBA07CAF1BF04CAA78D77E7300359EE7
:100ACB00730031BE70C04004D203800774146C777E
:100ADB001211E1DAF8227EB3001B14681F1468466A
:100AEB008000200402C2C053C9FC30054FC205E48C
:100AFB007AB3001E7AB3001C740180347EA3001EEF
:100B0B00BEA0C84003E480287CBA047AB3001E7EE2
:100B1B0073001CBE70104024D2C043C903E47AB3E7
:100B2B00001E7402800A7EA3001EBEA0324006E4A3
:100B3B007AB3001B227CBA047AB3001E22CAF87463
:100B4B000E6C771211E174111211B820E1537E373C
:100B5B000013BE34004028057EF04080027CF77401
:100B6B00207E0F00157C7F1210730A2F7E37001327
:100B7B009D327A3700130A157E1F00152D317A1F0F
:100B8B0000157E3700134D33780F74117E700A12E7
:100B9B0011E1E47AB30012800874117E7002121115
:100BAB00E1DAF822CA3B7EB3001070067E3F0022CA
:100BBB008007B402047E3F00297F13120C147F01BF
:100BCB007E3436007E24016E120D7F7F010B0D7477
:100BDB00021E141E0450034E20801478F46D337ED5
:100BEB002400019F107EA300104CAA780C7CB7F553
:100BFB00D50A367CB7F5D4800DBEA00278087CB739
:100C0B00F5D70A56F5D6DA3B227A1F00397E340027
:100C1B003C7E2400007E1B307E34003D7E24000091
:100C2B007A1B307E34003B7E2400007E1B307E34EA
:100C3B00003E7E2400007A1B307E34003A7E240076
:100C4B00007E1B307E34003F7E2400007A1B307EFA
:100C5B003400397E2400007E1B307E3400407E241D
:100C6B0000007A1B307E1F003D227EB30009BEB010
:100C7B000D50507EA003A4900C8673020CAD020C99
:100C8B00B0020CCE020CB3020CCE020CB6020CB9A5
:100C9B00020CBC020CBF020CC2020CC5020CC80237
:100CAB000CCB0202AA02057A02062C020DD0020618
:100CBB00D8020003020D290203BC020FAB0210F590
:100CCB00020006021213740E6C771211E1741112EA
:100CDB0011B830E04874207E0F001512008E0A1BED
:100CEB007E2700139D217A2700137E1F00152D31BF
:100CFB007A1F00157E3700134D33780F74117E70F9
:100D0B00481211E1E47AB30012800874117E70402E
:100D1B001211E17EB30009B42003020E63227EB3ED
:100D2B000008B480227EB3000B701C7EB3000A70E7
:100D3B00167EB3000D70107EB3000C700A7E370068
:100D4B000EBE34000168030212137EB30011B4040B
:100D5B000A7E3405707E2400FF80087E34056E7E8B
:100D6B002400FF7A1F00157E3400017A370013022E
:100D7B0011F46D0074104D00780B4D2278278D31D6
:100D8B007D126D22227D437D326D222F112D445019
:100D9B0002A50FBF1040049F100B901478ED7F013C
:100DAB006D227D34227D417D138D247D022F0040E9
:100DBB0004BD0440049D040B141478F17D237D3194
:100DCB007D106D0022CAF87EB3000870237EB3003D
:100DDB000D701D7EB3000C70177EB3000B70117E6F
:100DEB00F3000ABEF08050087E37000E4D336805C5
:100DFB001212138017E47C7F1211E14CFF6804740C
:100E0B0003800274027AB30011121221DAF8227EE7
:100E1B00A300104CAA781E7EB3002714680F146829
:100E2B000C14680914680A800075AC502275ACD894
:100E3B002275ACD022BEA002781D7EB3002E1468A2
:100E4B000F14680C14680914680A8000759A5022F4
:100E5B00759AD822759AD0227EA300104CAA7824BA
:100E6B00E47AB3002674087AB300286D117E04600F
:100E7B00097E1F0022BF10781B7EB30027B402141B
:100E8B00D2058010BEA002780BE47AB3002D740853
:100E9B007AB3002F120E1A020BAFCA59CA39C0D13E
:100EAB00C083C082A9319A05A9C19AC206A9309AFA
:100EBB0020A9C09A7EA19B7E7300377CB7047AB3BE
:100ECB0000370A372E3402007A71827A61837AEB0B
:100EDB00A0D082D083D0D1DA39DA5932CA59CA3983
:100EEB00C0D1C083C082A931AC05A9C1ACC207A9CE
:100EFB0030AC20A9C0AC7EA1AD7E7300387CB704AA
:100F0B007AB300380A372E3403007A71827A618300
:100F1B007AEBA0D082D083D0D1DA39DA59327EB3D2
:100F2B000011B404097EB30008BEB0A16802802191
:100F3B007EB3000C7AB3001070067E180022800B73
:100F4B007EB30010B4020A7E1800297A1F001580A8
:100F5B00030212137E37000E7A3700130211F47E50
:100F6B00B30011B404097EB30008BEB0216802803F
:100F7B00217EB3000C7AB3001070067E180022801D
:100F8B000B7EB30010B4020A7E1800297A1F0015DD
:100F9B0080030212137E37000E7A370013021205FC
:100FAB007EB30011B4041D7EB30008B481167EB36A
:100FBB00000B70107EB3000D700A7E37000EBE342E
:100FCB00000168030212137E34056E7E2400FF7A43
:100FDB001F00157E3400017A3700130211F420B282
:100FEB001D2004297EB3001D047AB3001D7E7300FF
:100FFB001DBE70054017D204D2C043C90322E47A48
:10100B00B3001D300407C2C053C9FCC20422CAF886
:10101B00740E7E70041211E174111211B87CFB3046
:10102B00E50874117E70401211E17CBF30E2077449
:10103B00116C771211E1C200DAF822CAF8740E7E35
:10104B0070051211E174111211B87CFB30E50874B4
:10105B00117E70401211E17CBF30E20774116C7786
:10106B001211E1C201DAF822CA3B7A73003A7F30DF
:10107B007AB30039800C7EB300397E3B700B74124F
:10108B0011E17EA3003A7CBA147AB3003A4CAA78E9
:10109B00E5DA3B22CAF8740E7E70021211E174116C
:1010AB001211B87CFB30E50874117E70401211E10F
:1010BB007CBF30E20774116C771211E1DAF822CAA7
:1010CB00F8740E7E70031211E174111211B87CFBCF
:1010DB0030E50874117E70401211E17CBF30E207DD
:1010EB0074116C771211E1DAF8227EB30011B4049B
:1010FB001B7EB30008B401147EB3000B700E7EB3DD
:10110B00000D70087E37000E4D3368030212130278
:10111B0012211200461211CD12089D1209911211C3
:10112B00A3D2AF1200CE3008FAC208120FE9120A8E
:10113B00E180F0CAB8C0D1D2097EB3001F147AB3D4
:10114B00001F7808740A7AB3001FD208D0D1DAB81E
:10115B00327EB3000924DF680A14680A0BB17809E0
:10116B00020F6A020F290211770212137EB30011CC
:10117B00B404097EB30008BEB02168030212130247
:10118B0012217584017E44041FE47A49B01B447814
:10119B00F97EF8004002111DC205E47AB3001B7AF8
:1011AB00B3001E7AB3001CC2C053C9FC227CABE552
:1011BB00FC20E7FB7CBA4480F5FCE5FC20E7FBE573
:1011CB00EC225389F0758A30758CF8D28CD2A974C5
:1011DB000A7AB3001F227CA77C7BE5FC20E7FB7C13
:1011EB00B7547FF5FC7AA1EC2274037AB300127426
:1011FB00117E70401211E1020B4874047AB3001295
:10120B0074117E70400211E174057AB300127411EF
:10121B007E70600211E1E47AB3001274117E7048A3
:03122B000211E1CC
:00000001FF
