:10000000021999C20AE47AB3001A22020E7A7EB368
:100010000010B404247EB30008B4021D7EB3000DAA
:1000200060030200A17EB3000B70767EB3000A70FD
:10003000707E37000E4D33680280667E63000C7C54
:10004000765E700F1B60682C2E607F68040B6078F2
:10005000507E2400017CB760053E241478FB7C654B
:100060004E6300187A630018740E121A1574117E0C
:10007000701080217E2400017CB760053E24147836
:10008000FB7C654E6300197A630019740E121A1511
:1000900074147E7020121A15740E6C77121A158063
:1000A00003021A47021A55021A47220217CE439139
:1000B000085392F775BC8375DE0043BA80740A7EDC
:1000C00034FEA87E24007E7A1BB0220210A2C28CCD
:1000D000D2A9D2B95389FC438E8022020DE575E97D
:1000E0000075EA00A9D7BA75930075940075910060
:1000F00075920075950075960075B10075B2007522
:10010000B30075B40075C90075CA0075CB0075CC15
:100110000075E10075E20053937F43948012000361
:100120001211A1D2AF7E3405DC12196C1200AE128E
:1001300016841200CE121888120A8B120B47D2AA0C
:10014000D28AE47AB300229F117E0800317406122D
:1001500015317E7300320A277E6300310A162D1294
:100160007EA300330A2A2D217EB300340A4B2D4290
:100170007E5300350A25BD2478067E2400018002C6
:100180006D226E24005568707A6301ED7A7301F078
:100190007AA300267AB3002730E704D2038002C294
:1001A000037EB3002754037AB300277E7301EDBEAC
:1001B00070FA280674807AB301ED7E7301F0BE7088
:1001C00014280674067AB301F07E7301F0BE700243
:1001D000500674067AB301F07E730026BE700840A4
:1001E0000674037AB300267E730027BE70034005B1
:1001F000E47AB30027E4801BC20374807AB301ED74
:1002000074067AB301F074037AB30026E47AB3007B
:100210002774FA7AB300227E3301ED7E34FED67E57
:1002200024007E7A1B30C2026D337A370023C20964
:10023000D2051212D31211241218AA12186512181C
:10024000C90206DB300405C204121841300762C23D
:10025000077EB30022605A147AB3002278537E736B
:1002600001ED7A7300317E7301F07A7300327E7390
:1002700000267A7300337E7300277A7300343003CC
:100280000A7EB3003444807AB300347EB300322E49
:10029000B300312EB300332EB3003464557AB3006B
:1002A000359F111219049F117E080031740612093E
:1002B000CB20050302037F200977C2006D337A3714
:1002C00001F47A3701EE7EA301F0BEA002380A7471
:1002D000017AB301F974038023BEA0037808740285
:1002E0007AB301F98016BEA004780A74047AB301C7
:1002F000F974018007740A7AB301F9E47AB301F85A
:100300007AA30052D2091208E620030575E6A08000
:100310000375E6907E7301F0BE7006380575E70A36
:10032000805FBE7008380575E71E805575E73F8011
:10033000507E7301F0BE700A3822300044C200C201
:1003400009800500000000003001F8C2011207E634
:100350002006277EB30027B40227801E300022C269
:10036000001212737E3701EEBE340FA04013C20993
:100370002006077EB30027B402071214E18002C2F0
:1003800009300A277EB3001AB4041D900FA8E0B408
:10039000FE16900FA9E0B4010F900FABE0B4FF0878
:1003A000900FAAE07AB300281219547ED300284C8B
:1003B000DD7803020244BED00578432005247E7315
:1003C0000026BE7008400674077AB3002612112476
:1003D000D205C2061218AAC2026D337A3700230270
:1003E00006DB7EB30027600280097E7301F0BE70D9
:1003F0000B40061214E10206DBD2060206DBBED079
:10040000067807B203121865801BBED007781B7EE2
:10041000B30027047AB30027BEB0034005E47AB3E3
:1004200000271218C9C2090205E7BED001680302FD
:1004300004C57EC301F0BEC01440030206DB3005D4
:100440000F7CBC047AB301F0C2091212D30205E793
:100450007EA301F84CAA78030206DB7CBC047AB3C5
:1004600001F07CBA147AB301F87E7301F90A377E81
:10047000270023AD327A3700237E7300520A376D8E
:10048000227E080003120F982F002F007EB301F880
:100490000A3B6D222F102E2400FF2E181AA97E1B56
:1004A000A07AA301F90A2A7E3700238D327A370019
:1004B0002370066D337A3700231212D31213E6121B
:1004C00007E60205E7BED00268030205597EC301B4
:1004D000F0BEC00238030206DB30050F7CBC147A84
:1004E000B301F0C2091212D30205E77EA301F8BEE0
:1004F000A00340030206DB7CBC147AB301F07CBA93
:10050000047AB301F87E7301F90A377E270023AD20
:10051000327A3700237E7300520A376D227E08003C
:1005200003120F982F002F007E7301F80A376D22F7
:100530002F102E2400FF2E181AA97E1B707A73012B
:10054000F90A277E3700238D327A3700231212D31F
:100550001213E61207E60205E7BED003781920055C
:10056000030206DB7EB3002670030206DB147AB3B7
:1005700000261211248070BED004781C20050302CE
:1005800006DB7EB30026BEB00740030206DB047A1A
:10059000B30026121124804FBED00A782220050312
:1005A0000206DB7EB301ED6005147AB301ED7E3304
:1005B00001ED7E34FED67E24007E7A1B308028BE7C
:1005C000D00B782C2005030206DB7EB301EDBEB014
:1005D000FA5005047AB301ED7E3301ED7E34FED688
:1005E0007E24007E7A1B3074FA7AB300220206DB86
:1005F000BED00878613005030206DB7E3700230B8E
:10060000347A3700237E7300520A376D227E080049
:1006100003120F982F002F007E7301F80A376D2206
:100620002F102E2400FF2E181AA97E1BB07AB301BA
:10063000F9B403067E7404B080107E7301F90A6772
:100640007E740FA08D769E740190BE770023386D66
:100650007A77002380677EB30028B4096820057B81
:100660007E3700234D3368061B347A3700237E73B0
:1006700000520A376D227E080003120F982F002FB8
:10068000007E7301F80A376D222F102E2400FF2EF2
:10069000181AA97E1BB07AB301F9B403067E74045C
:1006A000B080107E7301F90A677E740FA08D769E6C
:1006B000740190BE77002338047A7700231213E682
:1006C0001207E680167EB30028B40C0F1212D31264
:1006D00011241218AA1218651218C9E47AB3002856
:1006E000020244CAF87EF300087CBF5480B480162E
:1006F0007EB3000B70307EB3000A702A7E37000E86
:10070000BE34000268030207DB7CBF540F14681B71
:1007100014683B0BB168030207DB7EB3000D700663
:100720007EB3000C601E0207DB80197EB30010B49C
:10073000040F7EB3000D60030207DB7EB3000C6084
:10074000030207DB7E3410967E2400FF807D7EB39B
:100750000010B404067EB3000D6002807E7E73003C
:100760000C7CA75EA00F1B7068362E707F68040B90
:100770007078687E2400017CBA60053E241478FB02
:100780007E7300186C665C754D33680A7E34109871
:100790007E2400FF80357E3410967E2400FF802B5F
:1007A0007E2400017CBA60053E241478FB7E730031
:1007B000196C665C754D33680A7E3410987E24008F
:1007C000FF80087E3410967E2400FF7A1F00147E7E
:1007D0003400027A37001280078000121A47800323
:1007E000121A28DAF822CA3B7EA301F9BEA00378C8
:1007F0007C7E3404B07E270023BE2404B040047AFB
:100800003700237E2700237E340005AD327D631E32
:10081000646D777D362E3400007A71827A6183E0D0
:100820007AB301FEBEB0FA280674FA7AB301FE7EEE
:10083000B301FE19B700530B650B747D362E3400DF
:10084000007A71827A6183E07AB301FEBEB0FA2841
:100850000674FA7AB301FE7EB301FE19B700532E77
:100860006400030B74BE74019040A880520A3A7E63
:10087000140FA08D137D619E640190BE6700233824
:10088000047A6700237E0700237D10AD137D616D20
:10089000777D262E2400007A51827A4183E07AB354
:1008A00001FEBEB0FA280674FA7AB301FE7E530147
:1008B000FE195700532D630B74BE74019078D26DEE
:1008C000337A3701F274FB12193A6D7709B7005386
:1008D00012193A0B74BE74019040F174FF12193A68
:1008E000121A62DA3B227EA301F0BEA0053805751C
:1008F000DE008017BEA006780575DE01800DBEA063
:1009000007780575DE03800375DE09BEA00838048C
:10091000740C8026BEA00978047419801DBEA00A3C
:10092000780474328014BEA00B78047464800BBE0B
:10093000A00C780474C8800274FA7AB3002A7EB3DB
:10094000002770087EB3002A7AB30051BEA00A388F
:10095000170A3A6D222F112E2400FF2E181AEF0BC2
:100960001AF0C28CC2088026BEA00D383A0A3A6D31
:10097000222F112E2400FF2E181AEF0B1AF0C28C12
:100980007EE400017AE701F67AE7002BD2087E14B4
:100990000023AD1F6D337E2400019F107CB6F58CC3
:1009A0006D227CB7F58A220A3A6D222F112E24007F
:1009B000FF2E181AEF0B1AF0C28C7AF701F67AF7AD
:1009C000002BD208758C77758A4822CA3B7AB3020D
:1009D000027A0F01FE7F317EA302024CAA780574D1
:1009E00001020A8875C78075F5237AA302037A7716
:1009F00002047E1F01FE7A1F020675C5027CBDF54A
:100A0000F67CBEF5C37CBFF5C47E1F01FE7E1BB025
:100A1000F5C21219AF0B3C7E1F01FE0B347A1F0189
:100A2000FE7EB30202147AB3020278D17E7702040A
:100A30006D667E7302037A7302027E1F02067A1FBE
:100A400001FEE47AB3020375C5017CBDF5F67CBEF8
:100A5000F5C37CBFF5C41219AF7E1F01FE7E1BA03B
:100A6000E5C2BCAB680874027AB3020380130B3C86
:100A70000B347A1F01FE7EB30202147AB3020278AD
:100A8000C9121A027EB30203DA3B22CAF843BA80C3
:100A9000E47E34FEB17E24007E7A1BB07E14FEC458
:100AA0007E04007E7A0BB06CFF7E54FEC57E44004F
:100AB0007E7A2BF07E54FEC67A2BF07E54FED07ADE
:100AC0002BF07E54FED17A2BF07E54FEDE7A2BF092
:100AD0007EF0017E54FED27A2BF06CFF7E54FED362
:100AE0007A2BF07EF0687E54FEC87A2BF06CFF7E85
:100AF00054FED57A2BF07EF0807E54FED67A2BF011
:100B00007EF0077E54FECC7A2BF06CFF7E54FECD37
:100B10007A2BF07E54FEB27A2BF0E47A0BB074801C
:100B20007E14FEDD7A0BB074817E14FEC07A0BB0A9
:100B300074017E14FEC77A0BB074027A1BB0539115
:100B4000FD439202DAF822CAF843BA80E47E34FE0A
:100B5000B57E24007E7A1BB07E14FEE47E04007E07
:100B60007A0BB06CFF7E54FEE57E44007E7A2BF05B
:100B70007E54FEE67A2BF07E54FEF07A2BF07EF067
:100B8000067E54FEF17A2BF06CFF7E54FEF27A2B37
:100B9000F07EF0F97E54FEF37A2BF07EF0687E54FE
:100BA000FEEB7A2BF06CFF7E54FEFB7A2BF07EF08E
:100BB000577E54FEFC7A2BF06CFF7E54FEEC7A2BB1
:100BC000F07EF0507E54FEED7A2BF06CFF7E54FEEA
:100BD000B67A2BF074017A0BB074807E14FEFD7A25
:100BE0000BB074817E14FEE07A0BB074017E14FEAB
:100BF000E77A0BB074407A1BB05395F7439608DA46
:100C0000F8227EB30010BEB00268207EB3000870E8
:100C10001A7EB3000B70147EB3000D700E7EB3000D
:100C20000C70087E37000E4D336803021A477EB3FE
:100C3000000AB4015F74047AB30010E47AB30018B8
:100C40007AB30019740E7E7001121A1574127E7038
:100C500020121A1574107E7008121A15740E7E7008
:100C600002121A1574127E7020121A1574107E70FA
:100C700008121A15740E7E7001121A1574126C7710
:100C8000121A1574137E7008121A15740E6C7712EE
:100C90001A15801074037AB3001074FF7AB3001829
:100CA0007AB30019021A557EB30010B404247EB33F
:100CB0000008B4021D7EB3000D6003020D407EB338
:100CC000000B707C7EB3000A70767E37000E4D33C9
:100CD0006802806C7E63000C7C765E700F1B60681F
:100CE0002F2E607F68040B6078567E2400017CB74D
:100CF00060053E241478FB7C656E60FF5E6300181F
:100D00007A630018740E121A1574117E70408024D4
:100D10007E2400017CB760053E241478FB7C656E60
:100D200060FF5E6300197A630019740E121A15745D
:100D3000147E7080121A15740E6C77121A158003C7
:100D4000021A47021A557EB300085480BEB080686C
:100D500003020DD17EB3000B1BB168191468280B78
:100D6000B1786E7E3410417E2400FF7A1F00147E1D
:100D700034001280547E3410537E2400FF7A1F000A
:100D8000147E34004380427EB3000A14681914684C
:100D9000280BB1783C7E34103D7E2400FF7A1F0082
:100DA000147E34000480227E34109A7E2400FF7A60
:100DB0001F00147E34000880107E34101F7E240033
:100DC000FF7A1F00147E34001E7A370012800580DF
:100DD00000021A477E37000EBE37001250047A37E1
:100DE0000012021A28CA59CA1BC0D1C083C0827E11
:100DF00034FEE57E24007E7E1BA0E47A1BB07E34A8
:100E0000FEE67A1BB07CBA30E0657EA300250A3A84
:100E10002E3419EE7A71827A6183E4937E34FEFC7B
:100E20007E24007E7A1BB07CBA047AB30025B41409
:100E300005E47AB300257EB3002D047AB3002DB407
:100E4000142DE47AB3002D7EB30030047AB3003061
:100E5000B40807E47AB30030D2047EB301F1047A17
:100E6000B301F1B42009E47AB301F1D207D201D081
:100E700082D083D0D1DA1BDA5932CAB8CA1BCA0B66
:100E8000C0D1C083C082E5BD64FF7AB3002975BDBF
:100E90000075BCC32008237EB300297E3701F47D92
:100EA000232E2400007A51827A4183F00B347A3762
:100EB00001F4BE340FA0404980437E37002B1B3421
:100EC0007A37002B783B7E3701F67A37002B7EB3DA
:100ED00000297E3701F47D232E2400007A51827A86
:100EE0004183F07E04000A7D138D104D007802D2FC
:100EF000000B347A3701F4BE340FA04004D200C294
:100F00008CD082D083D0D1DA0BDA1BDAB832CAF8AF
:100F1000740E6C77121A1574111219D97CFB30E219
:100F20000F74117C7F5E70DF121A15E47AB3001122
:100F30007CBF30E40A74117C7F5E707F121A157ECC
:100F4000B3001124FD68461468480BB278477CBF93
:100F500030E04274207E08000812164B7E37000EE7
:100F60001216F27A37000E7EB30008546024E0684F
:100F70000D24E0680E2440780F12133380171219E5
:100F80001F8012121A6C800D121A47800812120C60
:100F90008003121490DAF822C2D57CB030E708B290
:100FA000D59F229F207F027CB430E713B2D59F22C9
:100FB0009F217F12120FCE9F229F207F028003125B
:100FC0000FCE30D5069F229F217F12226D00741014
:100FD0004D00780B4D2278278D317D126D22227DB8
:100FE000437D326D222F112D445002A50FBF1040BA
:100FF000049F100B901478ED7F016D227D34227DCB
:10100000417D138D247D022F004004BD0440049DCA
:10101000040B141478F17D237D317D106D00221EA8
:1010200003530054004300200055005300420020A9
:1010300000530065007200690061006C0004030940
:10104000041201000202000040BF3402FF0001014F
:10105000020001090243000201008032090400007D
:101060000102020100052400100105240100010411
:101070002402020524060001070582034000FF093F
:10108000040100020A000000070581024000000779
:101090000501024000000000010008035300540055
:1010A0004300CA7BCA6BCA5BCA4BCAD8CA79CA2B6F
:1010B000CA1BCA0BC0D1C0D0C083C082740612192B
:1010C000D97CFB74021219D97CDB74041219D97C07
:1010D000EB7CBF30E103121A6F7CBF30E2031215C4
:1010E000C57CBD30E003120F0E7CBD30E10312174A
:1010F000277CBD30E2031217527CBE30E10312168A
:10110000BB7CBF30E0031200AAD082D083D0D0D005
:10111000D1DA0BDA1BDA2BDA79DAD8DA4BDA5BDAE6
:101120006BDA7B326D337A3701F274FE12193A743E
:101130000312193A7E7300260A376D222F112E24CE
:1011400000FF2E181AB50B1A300A5612193A7E7380
:1011500000260A376D222F112E2400FF2E181AB5F3
:101160000B1A501218E8740112193A74FF12193A46
:10117000121A627E7300260A376D222E2400FF2E7B
:10118000181A717E1BB030E204D2828002C2823013
:10119000E104D2818002C28130E003D28022C28089
:1011A0002253B2FC43B10374807E34FE077E2400D8
:1011B0007E7A1BB07E34FE077E24007E7E1BB0301C
:1011C000E0F275DC0075F490E46C77121A15740186
:1011D0007E7008121A1574077E703F121A15740972
:1011E0007E703F121A15740B7E7007121A15740167
:1011F0006C77121A1574027AB30010E47AB30011F6
:101200007AB300187AB30019A9D7AF22CAF8740EBE
:101210006C77121A1574111219D920E1537E370018
:1012200012BE34004028057EF04080027CF77E0F1D
:1012300000147C7F742012177D0A2F7E3700129DC8
:10124000327A3700120A157E1F00142D317A1F00E2
:10125000147E3700124D33780F74117E700A121A03
:1012600015E47AB30011800874117E7002121A1509
:10127000DAF822CA69CAF87E3701EE7E04000A7DD8
:10128000138D107D61BE64019050432E3400007AAE
:1012900071827A61837EEBF0BEF0FA28037EF0FA69
:1012A0006D337A3701F274FC12193A0A5C1218E8AD
:1012B0007CBD1218E87CBF12193A74FF12193A1259
:1012C0001A627E3701EE2E34000A7A3701EEDAF820
:1012D000DA69226D337A3701F274FE12193A740218
:1012E00012193A7E7301F00A376D222F112E240055
:1012F000FF2E181B190B1A300A5612193A7E730169
:10130000F00A376D222F112E2400FF2E181B190B07
:101310001A501218E87E7301F00A376D222E24004D
:10132000FF2E181ADA7E1BB012193A74FF12193AFE
:10133000021A627EB30009BEB00D50507EA003A415
:101340009013447302136B02136E02138C02137119
:1013500002138C02137402137702137A02137D02B4
:1013600013800213830213860213890206E3020C20
:10137000A702000E02157B020D460200A702143CD4
:10138000020C0202160D0217A6021A69021A47CAB7
:101390003B7D73A9C7AF740E7E7001121A156D667E
:1013A000BE74004008057E704080027C7F7A730125
:1013B000FF74111219D920E0F87D162E140FE87E63
:1013C0000400017EB301FF7E70011219C47E730117
:1013D000FF0A372D639D737E7301FFBE704050C0BE
:1013E000A9D7AFDA3B22CA3B6D337A3701F27E735D
:1013F00001F06D222F112E2400FF2E181A7F0B1AD8
:10140000607E770023AD7674FE12193A74081219C3
:101410003A0A5E1218E87CBF1218E87E7301F00ADF
:10142000376D222E2400FF2E181AC57E1BB012190C
:101430003A74FF12193A121A62DA3B227EB300089C
:10144000B480227EB3000B701C7EB3000A70167E3F
:10145000B3000D70107EB3000C700A7E37000EBE14
:101460003400016803021A477EB30010B4040A7EF8
:101470003410987E2400FF80087E3410967E24006D
:10148000FF7A1F00147E3400017A370012021A28F6
:10149000740E6C77121A1574111219D930E0417458
:1014A000207E0F001412164B0A1B7E2700129D216E
:1014B0007A2700127E1F00142D317A1F00147E3708
:1014C00000124D33780F74117E7048121A15E47AA9
:1014D000B30011800874117E7040121A15021A7040
:1014E0002275E680C28CC209C205C206E47AB30046
:1014F000511218AA6D337A3700231213E67EA30027
:1015000052BEA004780A74057AB300527401801C9C
:10151000BEA003780A74057AB300527402800DBE2F
:10152000A002780C74057AB3005274037AB301F800
:1015300022CA3B7AB302027A0F01FE7F3175C7805F
:1015400075F52375C5017CBDF5F67CBEF5C37CBF82
:10155000F5C41219AFE5C27E1F01FE7A1BB00B3C29
:101560007E1F01FE0B347A1F01FE7EB30202147A45
:10157000B3020278D1121A02DA3B22CAF87EB30013
:101580000870237EB3000D701D7EB3000C70177EB3
:10159000B3000B70117EF3000ABEF08050087E3756
:1015A000000E4D336805121A478017E47C7F121A2B
:1015B000154CFF68047403800274027AB3001012A1
:1015C0001A55DAF822E46C77121A1574027AB3000D
:1015D00010E47AB30011740E7E7001121A157411A2
:1015E0007E7048121A15740E7E7002121A1574114C
:1015F0007E7048121A15740E7E7001121A1574143A
:101600007E7090121A15740E6C77021A157EB30054
:1016100010B4041D7EB30008B481167EB3000B70B5
:10162000107EB3000D700A7E37000EBE34000168D4
:1016300003021A477E3410967E2400FF7A1F00149E
:101640007E3400017A370012021A28CA3B7F307AB2
:10165000B301FA74161219D97AB301FB7AB301FCFB
:10166000800C7EB301FA1219D97A3BB00B747EA3B9
:1016700001FB7CBA147AB301FB4CAA78E57EB30176
:10168000FCDA3B2275E60075E73F43E680E5E6F5C8
:10169000E6E5E6F5E6E5E6F5E6E5E7F5E7E5E7F5AF
:1016A000E743BA8074C77E34FEAE7E24007E7A1B88
:1016B000B043B52043B62075E68022CAF8740E7E8A
:1016C0007001121A1574141219D97CFB30E60874D3
:1016D000147E7080121A157CBF30E01374217E14C2
:1016E0000FA87E04000112164B7AB3001AD20ADA50
:1016F000F8227A3701FA7E3401FB7E2400007E1B3B
:10170000307E3401FC7E2400007A1B307E3401FAE6
:101710007E2400007E1B307E3401FD7E2400007A92
:101720001B307E3701FC22CAF8740E7E7001121A3B
:101730001574111219D97CFB30E50874117E7040C4
:10174000121A157CBF30E20774116C77121A15DA81
:10175000F822CAF8740E7E7002121A15741112194A
:10176000D97CFB30E50874117E7040121A157CBFDD
:1017700030E20774116C77121A15DAF822CA3BCAE4
:10178000787F30CAB8800B7EFBB07E3B700B741242
:101790001A1529AFFFFF7CBA1439BFFFFF4CAA7896
:1017A000E61BFDDA3B227EB30010B4041B7EB300BF
:1017B00008B401147EB3000B700E7EB3000D7008E8
:1017C0007E37000E4D336803021A47021A55CAB815
:1017D000CA39C0D175BD0075BCC3D28CE47AB300E0
:1017E000516D337A3701F47A3701EE75E680D0D146
:1017F000DA39DAB8327EB30010B404097EB30008D7
:10180000BEB0A16803021A477E18020A7A1F0014AC
:101810007E37000E7A370012021A287EB30010B409
:1018200004097EB30008BEB0216803021A477E187F
:10183000020A7A1F00147E37000E7A370012021A4D
:10184000397EB30051601D147AB300517816F5BD8E
:10185000F5BE75BCC3D28C75E6806D337A3701F462
:101860007A3701EE226D337A3701F274FE12193A9B
:10187000740512193A300303E48002740112193A14
:1018800074FF12193A021A6243BA8053DD0F43DD26
:101890002075D2BB75D3A4E47E34FEAC7E24007EDA
:1018A0007A1BB043DD1043DD80226D337A3701F2BD
:1018B00074FE12193A740412193AA205E43312198B
:1018C0003A74FF12193A021A626D337A3701F274D0
:1018D000FE12193A740612193A7EB3002712193A09
:1018E00074FF12193A021A62CAF87CFBBEF0FB4080
:1018F0000B74FD12193A7CBF547F80027CBF121911
:101900003ADAF82275C78075F52375C5037CB5F5FD
:10191000F67CB6F5C37CB7F5C41219AF021A027E85
:10192000B3000924DF680A14680A0BB178090218A9
:101930001B0217F5021983021A477E3701F27D2335
:101940000B247A2701F22E340FE87A71827A6183B0
:101950007AEBB022A9C7AFC20A740E7E7001121AC8
:101960001574146C77121A15A9D7AF227D237E3413
:1019700016C97D131B147D3178F87D121B147D214F
:1019800078EC227EB30010B404097EB30008BEB028
:10199000216803021A47021A557584017E44041F08
:1019A000E47A49B01B4478F97EF802100200DEA206
:1019B000AF92D5C2AF75C65A75C6A500000000A289
:1019C000D592AF227CA77C7B0A5A2E540020121796
:1019D0007D74117E7001021A157CABE5FC20E7FBDB
:1019E0007CBA4480F5FCE5FC20E7FBE5EC227DA316
:1019F000C5E1F2F8F2E1C5A37D57351908020819CF
:101A0000355775C70075C50075C60075F6FF75C3F7
:101A1000FF75C4FF227CA77C7BE5FC20E7FB7CB73D
:101A2000547FF5FC7AA1EC2274037AB3001174118F
:101A30007E7040121A1502120C74047AB3001174ED
:101A4000117E7040021A1574057AB3001174117E6C
:101A50007060021A15E47AB3001174117E704802A6
:101A60001A157E3701F202138F021A47021A472213
:101A70002203000102040607050505050000000019
:101A8000040008000200040008000200040008002E
:101A90000200040008000200040008000200040024
:101AA0000800020004000800020A0502010A0503FA
:101AB000010A0402012710138809C403E801F40095
:101AC000FA0064003202020303030404040505055E
:101AD00006060607070708080809010101010101B8
:101AE00002020202020202020203030303030300D2
:101AF00002000200020002000200020004000800CE
:101B0000140028005000C8019003200002000400C7
:101B10000800140028005000C8000A001400320019
:101B20006400C801F4000100020005000A0014006E
:101B300032006400C801F4000100020005000A0040
:031B40001400325C
:00000001FF
