:1000000002036E74277E34FEF07E24007E7A1BB0DD
:10001000740F7E34FEF17A1BB074FF7E34FEF27AE8
:100020001BB07E34FEF37A1BB0E47E34FEEC7A1B08
:10003000B07E34FEE87A1BB07E34FEE97A1BB07ED7
:1000400034FEEA7A1BB07E34FEEB7A1BB074097E74
:1000500034FEF57A1BB074607E34FEF67A1BB07401
:10006000127E34FEF77A1BB074C07E34FEF87A1B21
:10007000B0741C7E34FEF97A1BB074207E34FEFA14
:100080007A1BB074257E34FEFB7A1BB074807E34FC
:10009000FEFC7A1BB0741E7E34FEE47A1BB07E3404
:1000A000FEE07E1BB044817A1BB07E3412C07A37EA
:1000B00000127E3425807A3700147E3438407A3737
:0B00C00000167E344B007A3700082247
:0300D3000201A582
:1000DB00020267E47E34FED07E24007E7A1BB0746D
:1000EB00017E34FED17A1BB074FF7E34FED27A1BB4
:1000FB00B07E34FED37A1BB0E47E34FECC7A1BB0D8
:10010B007E34FEC87A1BB07E34FEC97A1BB07E34B7
:10011B00FECA7A1BB07E34FECB7A1BB0742E7E34B3
:10012B00FED57A1BB074E07E34FED67A1BB0745DBC
:10013B007E34FED77A1BB074C07E34FED87A1BB0E7
:10014B0074BB7E34FED97A1BB074807E34FEDA7AAF
:10015B001BB074EA7E34FEDB7A1BB074607E34FE17
:10016B00DC7A1BB0741E7E34FEC47A1BB07E34FE68
:10017B00C07E1BB044817A1BB07E345DC07A3700E1
:10018B000A7E34BB807A37000C7E3477007A3700D6
:10019B000E7E34D4C07A37001022CA59CA1BCA0B40
:1001AB00C0D17E34FEC57E24007E7E1BA0E47A1B6C
:1001BB00B07CBA30E1247E37000A0A267E14FED5C5
:1001CB007E04007E7A0B607E14FED67A0B702E3482
:1001DB002EE07A37000AB2A0B2E87CBA30E2247E75
:1001EB0037000C0A267E14FED77E04007E7A0B6045
:1001FB007E14FED87A0B702E345DC07A37000CB2A9
:10020B00A1B2E97CBA30E3247E37000E0A267E14B5
:10021B00FED97E04007E7A0B607E14FEDA7A0B70B8
:10022B002E34BB807A37000EB2A2B2EA7CBA30E42D
:10023B00227E3700107E14FEDB7E04007E7A0B607C
:10024B007E14FEDC7A0B702E34EA607A370010B223
:10025B00A3B2EBD0D1DA0BDA1BDA5932CA59CA1B6B
:10026B00CA0BC0D17E34FEE57E24007E7E1BA0E44B
:10027B007A1BB07CBA30E1247E3700120A267E143A
:10028B00FEF57E04007E7A0B607E14FEF67A0B7010
:10029B002E3409607A370012B2A4B2EC7CBA30E289
:1002AB00247E3700140A267E14FEF77E04007E7A25
:1002BB000B607E14FEF87A0B702E3412C07A370066
:1002CB0014B2A5B2ED7CBA30E3247E3700160A26B1
:1002DB007E14FEF97E04007E7A0B607E14FEFA7AA1
:1002EB000B702E341C207A370016B2A6B2EE7CBAF5
:1002FB0030E4227E3700087E14FEFB7E04007E7AFB
:10030B000B607E14FEFC7A0B702E3425807A37003E
:10031B0008B2A7B2EFD0D1DA0BDA1BDA593275E992
:10032B0000A9D7BA75EA0075930075940075910012
:10033B0075920075950075960075B10075B20075D4
:10034B00B30075B40075C90075CA0075CB0075CCC8
:10035B000075E10075E2001200DE120003C2C0D28C
:10036B00AF80FE7584017E44041FE47A49B01B44C0
:09037B0078F97EF800170203294D
:00000001FF
