:0200000400FFFB
:03000000020200F9
:03000B0002047775
:0300E30002048292
:1002000075E90075EA0043BA8075933075943075CE
:10021000913275923275953C75963C75B15075B2B8
:100220005075B33C75B43C75C90C75CA0C75CBFFE1
:1002300075CCFF75E10075E2007581D075D000C204
:100240008C438E805389FB5389FC758CA2758A4040
:10025000D2A9D28C1203F1D2AF7E2403457A252392
:10026000753811753922753A33753B44753C5575AF
:100270003D66753E77753F883000FDC2007E3521B2
:100280000B347A3521BE3403E840397E3400007ADD
:1002900035217E3400007A352174021202CF20E02D
:1002A0000612037B0202C474007E34FEBB7E24006F
:1002B0007E7A1BB07E34FEBC7E24007E7E1BB05452
:1002C000FB7A1BB03001B1C2011202FD0202787E3E
:1002D00034FEBB7E24007E7A1BB07E34FEBC7E24BE
:1002E000007E7E1BB0227E34FEBB7E24007E7A1B05
:1002F000B07E34FEBC7E24007E7A1BA022740C12D9
:1003000002CFF540740D1202CFF541740E1202CFE8
:10031000F542740F1202CFF538740C1202CFF53982
:10032000740D1202CFF53A740E1202CFF53B740F22
:100330001202CFF53C740C1202CFF53D740D12027F
:10034000CFF53E740E1202CFF53F740F1202CF7438
:100350000C1202CF740D1202CF740E1202CF740F62
:100360001202CF7E61417E71421E341E341E341E45
:10037000341E345E3407FF7A352322740875F00882
:100380001202E67E15233E143E143E143E143E1423
:1003900074097A21F01202E6740A7A31F01202E648
:1003A000740B8538F01202E674088539F01202E603
:1003B0007409853AF01202E6740A853BF01202E6EF
:1003C000740B853CF01202E67408853DF01202E6DB
:1003D0007409853EF01202E6740A853FF01202E6C7
:1003E000740B75F0001202E6740175F0041202E657
:1003F000224397025397F775A200740075F0041218
:1004000002E674002403F5F074061202E67401C4D7
:1004100024022400F5F074071202E6741075F0004F
:100420001202E6741175F0001202E6741275F00003
:100430001202E6741375F0001202E6741475F0FFF0
:100440001202E6741575F0FF1202E6741675F0FFDD
:100450001202E6741775F0FF1202E6740475F0FFDD
:100460001202E6740375F0FF1202E6740075F000E4
:100470001202E675F10222C0D0C0E0D200D0E0D076
:10048000D032C0D0C0E0CA48CA58CA68CA78C0F0E2
:100490007E34FEBB7E24007E7E1BA074037A1BB0DC
:1004A0007E34FEBC7E24007E7E1BB07A1BB020E032
:1004B0002C20E12B20E22A20E32920E42A20E52930
:1004C00020E6287E34FEBB7E24007E7A1BA0D0F07E
:1004D000DA78DA68DA58DA48D0E0D0D03280D280E0
:0D04E000D380D4D20180D380D480D580D6C3
:00000001FF
