:1000000002027F7E53000ABE500A401174017E70C6
:10001000047E400A8C547C652E6030800874017E1A
:1000200070047E602012022574017E70057E5300EC
:100030000A7E400A8C547C642E60301202257401C2
:100040007E70067E602D12022574017E70077E533D
:1000500000097E400A8C547C652E603012022574A3
:10006000017E70087E5300097E400A8C547C642E09
:10007000603012022574017E70097E602D12022507
:1000800074017E700A7E5300087E400A8C547C65A1
:100090002E603012022574017E700B7E5300087EA4
:1000A000400A8C547C642E603002022575E900A958
:1000B000D7BA75EA0075933075943075913A759298
:1000C0003275953C75963C75B15075B25075B33C20
:1000D00075B43C75C90C75CA0C75CBFF75CCFF7532
:1000E000E10075E20012019FE412024A740112025B
:1000F0004AE46C777E1402C47E0400FF120120746F
:100100000C7AB3000AE47AB300097AB3000812004B
:10011000037E3403E812026812016512000380F1C5
:10012000CA3B7F307A73000B54010A4B3E443E4475
:100130003E443E443E443E447E73000B0A572D54D9
:1001400044801201FD80167E3BB01201D37EB300C5
:100150000B047AB3000BBEB01050070B747E3BB09B
:1001600070E5DA3B227EB30008047AB30008BEB023
:100170003C402BE47AB300087EB30009047AB30054
:1001800009BEB03C4018E47AB300097EB3000A040B
:100190007AB3000ABEB0184005E47AB3000A22C25E
:1001A000C4C2C5C2C27E3400641202687430120236
:1001B000957E34000A12026874381201FD7E340004
:1001C0000612026874011201FD74061201FD740C1E
:1001D0000201FDCAF8C2C5D2C275E8FF1202A8D258
:1001E000C41202B8C2C4C2C2D2C57AB1E81202A80F
:1001F000D2C41202A8C2C475E8FFDAF822CAF8C253
:10020000C5D2C275E8FF1202A8D2C41202B8C2C495
:10021000C2C27AB1E81202A8D2C41202A8C2C4753E
:10022000E8FFDAF822CAF87CF654010A4B3E443E55
:10023000443E443E443E443E440A572D54448012BA
:1002400001FD7CBF1201D3DAF822CAF8540103037E
:1002500054C044801201FD6CFF74201201D30BF0D6
:10026000BEF01040F4DAF8227D237E340FA07D1317
:100270001B147D3178F87D121B147D2178EC2275DA
:1002800084017E44041FE47A49B01B4478F97EF867
:10029000000B0200ACC2C27AB1E81202A8D2C412AA
:1002A00002A8C2C475E8FF220000000000000000A0
:1002B00000000000000000227E34138830EF041B91
:1002C0003478F9222D2D2D436C6F636B2064656D9E
:0502D0006F2D2D2D0033
:00000001FF
