:10000000020A46020D89020D892222020DAA7EB340
:100010000010BEB00268207EB30008701A7EB300E4
:100020000B70147EB3000D700E7EB3000C70087E52
:1000300037000E4D336803020D897EB3000AB40108
:100040005F74047AB30010E47AB300187AB300192D
:10005000740E7E7001120D4474127E7020120D44D5
:1000600074107E7008120D44740E7E7002120D44DE
:1000700074127E7020120D4474107E7008120D44AC
:10008000740E7E7001120D4474126C77120D44745C
:10009000137E7008120D44740E6C77120D4480109C
:1000A00074037AB3001074FF7AB300187AB300199E
:1000B000020D977CABE5FC20E7FB7CBA4480F5FCA5
:1000C000E5FC20E7FBE5EC22020D890206C4CAF834
:1000D0007EB30010B4040280030202083000030261
:1000E000017C20020302017CC202E47AB300257A7B
:1000F000B300267AB300277AB300287AB300297AAE
:10010000B3002A7AB3002B7AB3002C7EB3001A24F2
:1001100081683724C0682F24E0682724F0681F24F2
:10012000F868171BB2680F1BB16807147822741E99
:10013000801A741F8016742080127421800E74221D
:10014000800A742380067424800274257AB3002701
:10015000A9C7AFD200740E7E7001120D446CFF74FB
:10016000210A3F09730025120D440BF0BEF00878F8
:10017000EE74117E7001120D44A9D7AF3001030255
:100180000208200303020208C203E47AB3002D7AB6
:10019000B3002E7AB3002F7EB3001B24816837246E
:1001A000C0682F24E0682324F0681B24F4680F1B28
:1001B000B168071478267401800674048002740202
:1001C0007AB3002D801674FC800274047AB3002E7A
:1001D000800A74FC800274047AB3002FA9C7AFD2DE
:1001E00001740E7E7002120D446CFF74220A3F09E6
:1001F00073002D120D440BF0BEF00378EE74117EE7
:100200007001120D44A9D7AFDAF82205010902A145
:10021000010901A10005091901290315002501752E
:1002200001950381027505950181010501093009D8
:10023000311581257F750895028106C0C04603539C
:1002400000540043002000550053004200200043AA
:10025000004F004D0050004F00530049005400452E
:100260000020004B006500790062006F00610072A1
:100270000064002000260020004D006F0075007310
:10028000006500040309041201000200000040BFE1
:10029000340BFF00010102000105010906A101055F
:1002A0000719E029E71500250175019508810275F8
:1002B00008950181011900296515002565750895C6
:1002C000068100050819012903150025017501950E
:1002D000039102750595019101C0090242000201D6
:1002E000008032090400000203010100092101011C
:1002F00000012241000705810308000A07050103E8
:1003000001000A09040100010301020009210101A1
:1003100000012232000705820303000A00000100E9
:100320000803530054004300CAF87EF300087CBF62
:100330005480B480167EB3000B70307EB3000A7018
:100340002A7E37000EBE34000268030204207CBF00
:10035000540F14681B14683B0BB168030204207E21
:10036000B3000D70067EB3000C601E0204208019DD
:100370007EB30010B4040F7EB3000D6003020420AE
:100380007EB3000C60030204207E34031C7E240034
:10039000FF807D7EB30010B404067EB3000D6002C2
:1003A000807E7E73000C7CA75EA00F1B7068362ECB
:1003B000707F68040B7078687E2400017CBA600549
:1003C0003E241478FB7E7300186C665C754D3368B0
:1003D0000A7E34031E7E2400FF80357E34031C7E9B
:1003E0002400FF802B7E2400017CBA60053E24148B
:1003F00078FB7E7300196C665C754D33680A7E3439
:10040000031E7E2400FF80087E34031C7E2400FF30
:100410007A1F00147E3400027A37001280078000B1
:10042000120D898003120D6ADAF8227EB300085497
:1004300080BEB08068030204EE7EB3000B1BB1687F
:100440002114683024E16872242168030204EE7EDE
:100450003402877E2400FF7A1F00147E34001202CB
:1004600004E67E3402DA7E2400FF7A1F00147E3414
:10047000004280727EB3000A1468191468280BB118
:10048000786C7E3402837E2400FF7A1F00147E3451
:10049000000480527E3403207E2400FF7A1F001463
:1004A0007E34000880407E34023D7E2400FF7A1FA7
:1004B00000147E340046802E80347EB3000C146815
:1004C0001504782A7E3402997E2400FF7A1F0014D6
:1004D0007E34004180107E34020B7E2400FF7A1FA0
:1004E00000147E3400327A37001280058000020D3D
:1004F000897E37000EBE37001250047A3700120290
:100500000D6A7EB30010B404247EB30008B4021D4B
:100510007EB3000D600302059B7EB3000B707C7EF2
:10052000B3000A70767E37000E4D336802806C7E11
:1005300063000C7C765E700F1B60682F2E607F68F6
:10054000040B6078567E2400017CB760053E2414BD
:1005500078FB7C656E60FF5E6300187A6300187438
:100560000E120D4474117E704080247E2400017CA4
:10057000B760053E241478FB7C656E60FF5E630007
:10058000197A630019740E120D4474147E7080126F
:100590000D44740E6C77120D448003020D89020D18
:1005A000977EB30010B404247EB30008B4021D7E0D
:1005B000B3000D60030206347EB3000B70767EB389
:1005C000000A70707E37000E4D33680280667E63CD
:1005D000000C7C765E700F1B60682C2E607F6804B8
:1005E0000B6078507E2400017CB760053E241478AF
:1005F000FB7C654E6300187A630018740E120D447C
:1006000074117E701080217E2400017CB760053E4D
:10061000241478FB7C654E6300197A630019740E0C
:10062000120D4474147E7020120D44740E6C7712F7
:100630000D448003020D89020D97CAF8740E6C7781
:10064000120D4474111200B37CFB30E20F74117C64
:100650007F5E70FB120D44E47AB300117CBF30E47E
:100660000A74117C7F4E7080120D447EB3001124F9
:10067000FD68461468480BB278477CBF30E042748E
:10068000207E080008120B017E37000E120B3A7A0A
:1006900037000E7EB30008546024E0680D24E06843
:1006A0000E2440780F12081D8017120B6F80121253
:1006B0000DA7800D120D8980081207B6800312085D
:1006C000CDDAF822CA7BCA6BCA5BCA4BCAD8CA79D0
:1006D000CA2BCA1BCA0BC0D1C0D0C083C08274064B
:1006E0001200B37CFB74021200B37CDB74041200B2
:1006F000B37CEB7CBF30E10312000A7CBF30E20325
:100700001209FE7CBD30E00312063A7CBD30E103E5
:10071000120B9D7CBD30E203120BCA7CBE30E1039C
:10072000120C9F7CBF30E003120009D082D083D02E
:10073000D0D0D1DA0BDA1BDA2BDA79DAD8DA4BDA65
:100740005BDA6BDA7B3253B2FC43B10374807E34E4
:10075000FE077E24007E7A1BB07E34FE077E2400D6
:100760007E7E1BB030E0F275DC0075F490E46C77AF
:10077000120D4474017E7081120D4474077E703F27
:10078000120D4474097E703F120D44740B7E700785
:10079000120D4474017E7001120D4474027AB3008C
:1007A00010E47AB300117AB300187AB30019C200CA
:1007B000C201A9D7AF22CAF8740E6C77120D447427
:1007C000111200B320E1537E370012BE34004028DE
:1007D000057EF04080027CF774207E0F00147C7F41
:1007E000120BF70A2F7E3700129D327A3700120A59
:1007F000157E1F00142D317A1F00147E3700124D14
:1008000033780F74117E700A120D44E47AB300112C
:10081000800874117E7002120D44DAF8227EB30053
:1008200009BEB00D50507EA003A490082E7302089C
:100830005502085802087602085B02087602085E34
:1008400002086102086402086702086A02086D0271
:1008500008700208730203280205020205A10209BA
:10086000B402042B0200C802087902000E020AC377
:10087000020C77020DA4020D897EB30008B4802219
:100880007EB3000B701C7EB3000A70167EB3000DA1
:1008900070107EB3000C700A7E37000EBE3400016B
:1008A0006803020D897EB30010B4040A7E34031E6F
:1008B0007E2400FF80087E34031C7E2400FF7A1F04
:1008C00000147E3400017A370012020D6A740E6C37
:1008D00077120D4474111200B330E03D74207E0F86
:1008E0000014120B010A1B7E2700129D217A27009B
:1008F000127E1F00142D317A1F00147E3700124D16
:1009000033780E74117E7048120D44E47AB30011EE
:100910002274117E7040020D44227594007593007C
:100920007580FFC28600007EA1805EA00FD286C2C5
:10093000870000E580540FC454F04CABD28730B52B
:10094000037EA0FF7EB3001BBCBA680B7AA3001B1A
:1009500074147AB3001D227EB3001D6009147AB3AB
:10096000001D7002D203227594007593007580FFFC
:10097000C28600007EA1805EA00FD286C2870000E2
:10098000E580540FC454F04CABD28720B5037EA051
:10099000FF7EB3001ABCBA680B7AA3001A74147AEB
:1009A000B3001C227EB3001C6009147AB3001C70D3
:1009B00002D20222CAF87EB3000870237EB3000D73
:1009C000701D7EB3000C70177EB3000B70117EF3A8
:1009D000000ABEF08050087E37000E4D33680512C5
:1009E0000D898017E47C7F120D444CFF680474036A
:1009F000800274027AB30010120D97DAF822E46CC8
:100A000077120D4474027AB30010E47AB3001174C3
:100A10000E7E7001120D4474117E7048120D4474E4
:100A20000E7E7002120D4474117E7048120D4474D3
:100A30000E7E7001120D4474147E7090120D447479
:100A40000E6C77020D447584017E44041FE47A49DC
:100A5000B01B4478F97EF8002F7E0400FF7E140D51
:100A6000AD0B0A405D44681A692000020B0E0B446E
:100A7000800A7E0BB07A29B00B240B0C1B4478F251
:100A800080DF020CEC7E1400007E04000174011271
:100A90000D2BB4012D53B4FE53B3FE53CC1F53CBD7
:100AA0001FC2C0900000E020E003D38001C392EF9A
:100AB00020E103D38001C392EE20E203D38001C37F
:100AC00092ED227EB30010B4041D7EB30008B48101
:100AD000167EB3000B70107EB3000D700A7E3700D7
:100AE0000EBE3400016803020D897E34031C7E248F
:100AF00000FF7A1F00147E3400017A370012020DC5
:100B00006ACA3B7F307AB3002174161200B37AB3FD
:100B100000227AB30023800C7EB300211200B37A46
:100B20003BB00B747EA300227CBA147AB300224C33
:100B3000AA78E57EB30023DA3B227A3700217E349F
:100B400000227E2400007E1B307E3400237E2400A1
:100B5000007A1B307E3400217E2400007E1B307E14
:100B60003400247E2400007A1B307E370023227E4E
:100B7000B300091BB1681714681A24FA680D1468C9
:100B800010146813240A7812020C23020C4D020C74
:100B9000C6020D0D020003020006020D89CAF87498
:100BA0000E7E7001120D4474111200B37CFB30E50F
:100BB0000874117E7040120D447CBF30E20774113E
:100BC0006C77120D44C200DAF822CAF8740E7E70F7
:100BD00002120D4474111200B37CFB30E50874114D
:100BE0007E7040120D447CBF30E20774116C7712A6
:100BF0000D44C201DAF822CA3B7A7300227F307AB0
:100C0000B30021800C7EB300217E3B700B74120D6B
:100C1000447EA300227CBA147AB300224CAA78E561
:100C2000DA3B227EB30010B404097EB30008BEB0E4
:100C3000A16803020D897E3400007E2400017A1F22
:100C400000147E37000E7A370012020D6A7EB30060
:100C500010B404097EB30008BEB0216803020D89F8
:100C60007E3400007E2400017A1F00147E37000EBF
:100C70007A370012020D7B7EB30010B4041B7EB3E2
:100C80000008B401147EB3000B700E7EB3000D702B
:100C9000087E37000E4D336803020D89020D97CA96
:100CA000F8740E7E7001120D4474141200B37CFBB4
:100CB00030E60874147E7080120D447CBF30E0036F
:100CC000120A85DAF8227EB30010B404097EB3005C
:100CD00008BEB0A16803020D897E18001E7A1F00AD
:100CE000147E3400017A370012020D6A75E900A9FA
:100CF000D7BA75EA00120746120D57D2AF1200CECE
:100D00003004FAC20412096712091A80F07EB30097
:100D100010B404097EB30008BEB0216803020D8937
:100D20007E73000B7A73001E020D97CAF80A5B2EC1
:100D3000540020120B017CFB74146C77120D447C60
:100D4000BFDAF8227CA77C7BE5FC20E7FB7CB7546C
:100D50007FF5FC7AA1EC22C204A9D78E5389F075E5
:100D60008A40758CA2D28CD2A92274037AB3001166
:100D700074117E7040120D440207B674047AB300F9
:100D80001174117E7040020D4474057AB300117421
:100D9000117E7060020D44E47AB3001174117E700C
:100DA00048020D44020D89020D89D204320001006F
:100DB0001A000001001B000001001C000001001DC2
:030DC00000000030
:00000001FF
