:0200000400FFFB
:03000000020100FA
:03000B0002023DB1
:1001000075E90075EA0043BA8075933075943075CF
:10011000913A75923275953C75963C75B15075B2B1
:100120005075B33C75B43C75C90C75CA1C75CBFFD2
:1001300075CCFF75E10075E2007581D075D000C205
:100140008C438E805389FB5389FC758CA2758A4041
:10015000D2A9D28CD2AFC2CC74FA12018F12018F05
:10016000D2CC753932E4F53AF53BF53CF538300040
:10017000FDC200E538600CC2CC74FA12018FD2CCFB
:10018000753800D539E87539321201C402016EC0E4
:1001900002C003C004A5FC7E1417701B1478FCA5D4
:1001A000DCF5D004D003D0022200010200030000DD
:1001B000000400000000000000C0037E303CA5DB0E
:1001C000FDD00322C006C0077E613B7580F012019E
:1001D000B9E58054F0F53B75800F1201B9E5805404
:1001E0000F453BF53B633BFFA5EEB53B487E613ACF
:1001F000853B3AE53A603BA5EE600FA5EEB53A3592
:10020000053CE53CB4142E753C12E53AC4540F90FD
:1002100001A993A5FE601EE53A540F93A5FF601552
:10022000A5EE25E025E0A5FEA5EFA52E240CF538CA
:100230008003753C007580FFD007D00622C0D0C077
:08024000E0D200D0E0D0D03282
:00000001FF
