:0200000400FFFB
:03000000020100FA
:1001000075E90075EA0043BA8075933075943075CF
:10011000913075923075953C75963C75B15075B2BD
:100120005075B33C75B43C75C90C75CA0C75CBFFE2
:1001300075CCFF75E10075E2007581D075D000C205
:10014000C0C2E812017BD2E8C2E912017BD2E9C247
:10015000EA12017BD2EAC2EB12017BD2EBC2EC12B3
:10016000017BD2ECC2ED12017BD2EDC2EE12017B1B
:10017000D2EEC2EF12017BD2EF80C6C002C003C034
:10018000047E40FA7E1417701B1478FCA5DCF5D0B1
:0601900004D003D002229E
:00000001FF
