:10000000020A8ED20332020D3122220200037EB395
:100010000012BEB00268207EB30008701A7EB300E2
:100020000B70147EB3000D700E7EB3000C70087E52
:1000300037000E4D336803020D317EB3000AB40160
:100040005F74047AB30012E47AB3001A7AB3001B27
:10005000740E7E7001120CFF74127E7020120CFF61
:1000600074107E7008120CFF740E7E7002120CFF6A
:1000700074127E7020120CFF74107E7008120CFF38
:10008000740E7E7001120CFF74126C77120CFF74E8
:10009000137E7008120CFF740E6C77120CFF801028
:1000A00074037AB3001274FF7AB3001A7AB3001B98
:1000B000020D3FA9C7AF740E7E7001120CFF7414BD
:1000C0006C77120CFFC200A9D7AF22020787CAF8CB
:1000D0007EF300087CBF5480B480167EB3000B70A2
:1000E000307EB3000A702A7E37000EBE34000268EC
:1000F000030201C67CBF540F14681B14683B0BB18C
:1001000068030201C67EB3000D70067EB3000C606A
:100110001E0201C680197EB30012B4040F7EB30024
:100120000D60030201C67EB3000C60030201C67EAF
:1001300034077B7E2400FF807D7EB30012B404066A
:100140007EB3000D6002807E7E73000C7CA75EA0F3
:100150000F1B7068362E707F68040B7078687E24E1
:1001600000017CBA60053E241478FB7E73001A6C93
:10017000665C754D33680A7E34077D7E2400FF80FF
:10018000357E34077B7E2400FF802B7E2400017C9B
:10019000BA60053E241478FB7E73001B6C665C75A8
:1001A0004D33680A7E34077D7E2400FF80087E344C
:1001B000077B7E2400FF7A1F00167E3400027A3708
:1001C000001480078000120D318003120D12DAF83E
:1001D000226466696B6E707375787A7C7F81838622
:1001E000888A8D8F91939597999C9EA0A2A3A5A78D
:1001F000A9ABACAEB0B1B3B4B6B7B8BABBBCBDBEB8
:10020000BFC0C1C2C3C4C4C5C6C6C7C7C7C8C8C8A3
:10021000C8C8C8C8C8C8C7C7C7C6C6C5C4C4C3C27B
:10022000C1C0BFBEBDBCBBBAB8B7B6B4B3B1B0AE47
:10023000ACABA9A7A5A3A2A09E9C99979593918FDB
:100240008D8A888683817F7C7A787573706E6B69FE
:100250006664625F5D5A585553504E4C494745425B
:10026000403E3B39373533312F2C2A282625232190
:100270001F1D1C1A181715141211100E0D0C0B0A45
:100280000908070605040403020201010100000039
:100290000000000000000101010202030404050641
:1002A0000708090A0B0C0D0E101112141517181A55
:1002B0001C1D1F21232526282A2C2F3133353739A1
:1002C0003B3E40424547494C4E505355585A5D5F5E
:1002D00062CA79740E7E7001120CFF7414120CEA5B
:1002E0007CFB30E60874147E7080120CFF7CBF200B
:1002F000E0030203927E1400407E04000174211288
:100300000B0B7AB300107E1F00344D2378030203D9
:10031000906CFF80737EB300111A3B7E0F00342D6A
:10032000317D207E1BA00A4F2E4400407A91827AB4
:1003300081837EEBE0BCEA7839047AB300117E73E6
:1003400000111A372D317D207E1BB0703974146C6A
:1003500077120CFF75F40075DC00E47E34FE077E36
:1003600024007E7A1BB07E34000A120CA775C76089
:1003700080FE7E1F00347E1B70BCE7780474018011
:1003800001E47AB300110BF07E730010BC7F388556
:10039000D200DA79227EB30012B404247EB30008BE
:1003A000B4021D7EB3000D600302042E7EB3000B69
:1003B000707C7EB3000A70767E37000E4D33680283
:1003C000806C7E63000C7C765E700F1B60682F2E45
:1003D000607F68040B6078567E2400017CB760055E
:1003E0003E241478FB7C656E60FF5E63001A7A63BE
:1003F000001A740E120CFF74117E704080247E244B
:1004000000017CB760053E241478FB7C656E60FFBC
:100410005E63001B7A63001B740E120CFF74147E63
:100420007080120CFF740E6C77120CFF8003020DAB
:1004300031020D3F7EB300085480BEB080680302D5
:1004400004BF7EB3000B1BB168191468280BB17888
:100450006E7E3407267E2400FF7A1F00167E34004D
:100460001280547E3407387E2400FF7A1F00167EE7
:1004700034004380427EB3000A1468191468280BC4
:10048000B1783C7E3407227E2400FF7A1F00167E5E
:1004900034000480227E34077F7E2400FF7A1F0010
:1004A000167E34000880107E3407047E2400FF7A14
:1004B0001F00167E34001E7A37001480058000026B
:1004C0000D317E37000EBE37001450047A37001409
:1004D000020D127EB30012B404247EB30008B402ED
:1004E0001D7EB3000D60030205667EB3000B7076BF
:1004F0007EB3000A70707E37000E4D33680280664E
:100500007E63000C7C765E700F1B60682C2E607F13
:1005100068040B6078507E2400017CB760053E249F
:100520001478FB7C654E63001A7A63001A740E120D
:100530000CFF74117E701080217E2400017CB76056
:10054000053E241478FB7C654E63001B7A63001B18
:10055000740E120CFF74147E7020120CFF740E6C5B
:1005600077120CFF8003020D31020D3FCAF8740EA2
:100570006C77120CFF7411120CEA7CFB30E20F74E2
:10058000117C7F5E70FB120CFFE47AB300137CBF1A
:1005900030E40A74117C7F4E7080120CFF7EB30031
:1005A0001324FD68461468480BB278477CBF30E0DE
:1005B000427E0800087420120B0B7E37000E120BCF
:1005C000457A37000E7EB30008546024E0680D249D
:1005D000E0680E2440780F12086E8017120C8C8091
:1005E00012120D4F800D120D318008120807800382
:1005F00012091EDAF822CA3B7A3700257F307E3492
:1006000000C87A37002AA9C7AF740E7E7001120C99
:10061000FF6D337A3700287E270025BE240040086E
:10062000057E704080027C757A7300277411120C6D
:10063000EA30E0107E37002A7D231B247A27002A27
:100640004D3378E87F032E1700287EB300277E7095
:1006500001120CD57E7300270A277D322E37002821
:100660007A3700287E3700259D327A3700257E7341
:100670000027BE704050A0D202A9D7AFDA3B225368
:10068000B2FC43B10374807E34FE077E24007E7A80
:100690001BB07E34FE077E24007E7E1BB030E0F26D
:1006A00075DC0075F490E46C77120CFF74017E70B9
:1006B00008120CFF74077E703F120CFF74097E70E5
:1006C0003F120CFF740B7E7007120CFF74016C77E5
:1006D000120CFF74027AB30012E47AB300137AB3F7
:1006E000001A7AB3001B7E3401007E2400C27A1FF8
:1006F000002C7AB300307AB3003174087AB3003238
:10070000A9D7AF221E035300540043002000550018
:100710005300420020005300650072006900610030
:100720006C00040309041201000202000040BF34FF
:1007300002FF0001010200010902430002010080E2
:100740003209040000010202010005240010010525
:100750002401000104240202052406000107058289
:10076000034000FF09040100020A000000070581A0
:1007700002400000070501024000000000010008DF
:1007800003530054004300CA7BCA6BCA5BCA4BCAFE
:100790003BCA2BCA1BCA0BC0D0C083C0827EF1FCEF
:1007A0007406120CEA7CEB7402120CEA7CCB740423
:1007B000120CEA7CDB7CBE30E10312000A7CBE3006
:1007C000E2031209FF7CBC30E00312056C7CBC30F4
:1007D000E103120B7A7CBC30E203120BA77CBD3024
:1007E000E1031202D17CBE30E0031200097AF1FC71
:1007F000D082D083D0D0DA0BDA1BDA2BDA3BDA4B9B
:10080000DA5BDA6BDA7B32CAF8740E6C77120CFFA3
:100810007411120CEA20E1537E370014BE340040FC
:1008200028057EF04080027CF77E0F00167C7F74E6
:1008300020120BD20A2F7E3700149D327A37001413
:100840000A157E1F00162D317A1F00167E37001400
:100850004D33780F74117E700A120CFFE47AB300E6
:1008600013800874117E7002120CFFDAF8227EB336
:100870000009BEB00D50507EA003A490087F730203
:1008800008A60208A90208C70208AC0208C70208A5
:10089000AF0208B20208B50208B80208BB0208BEDF
:1008A0000208C10208C40200CE0203950204D3026A
:1008B00009B50204340200060208CA02000E020A48
:1008C000CD020BFB020D4C020D317EB30008B4804B
:1008D000227EB3000B701C7EB3000A70167EB3003C
:1008E0000D70107EB3000C700A7E37000EBE34000F
:1008F000016803020D317EB30012B4040A7E34078E
:100900007D7E2400FF80087E34077B7E2400FF7AF2
:100910001F00167E3400017A370014020D12740E87
:100920006C77120CFF7411120CEA30E03D7E0F0060
:10093000167420120B0B0A1B7E2700149D217A27A8
:1009400000147E1F00162D317A1F00167E3700140A
:100950004D33780E74117E7048120CFFE47AB300A8
:10096000132274117E7040020CFF22120A471206F5
:100970007FD2AFC203E480377EB30012B404F930F3
:1009800000031200B33003F0C2037E0800337E344C
:1009900000011205F67E7300330A172E1401D17E72
:1009A0000400FF7E3400011205F67EB30033047AA2
:1009B000B3003380C3CAF87EB3000870237EB3004F
:1009C0000D701D7EB3000C70177EB3000B70117E8E
:1009D000F3000ABEF08050087E37000E4D336805E4
:1009E000120D318017E47C7F120CFF4CFF680474F9
:1009F00003800274027AB30012120D3FDAF822E487
:100A00006C77120CFF74027AB30012E47AB300130D
:100A1000740E7E7001120CFF74117E7048120CFF70
:100A2000740E7E7002120CFF74117E7048120CFF5F
:100A3000740E7E7001120CFF74147E7090120CFF05
:100A4000740E6C77020CFF75E900A9D7BA75EA003D
:100A500075930075940075910075920075950075F9
:100A6000960075B10075B20075B30075B40075C914
:100A70000075CA0075CB0075CC0075E10075E20009
:100A8000438E80758A40758CA2D28CD2A92275843F
:100A9000017E44041FE47A49B01B4478F97EF800D3
:100AA000377E0400FF7E140D560B0A405D44681A21
:100AB000692000020B0E0B44800A7E0BB07A29B02D
:100AC0000B240B0C1B4478F280DF02096B7EB30011
:100AD00012B4041D7EB30008B481167EB3000B70FF
:100AE000107EB3000D700A7E37000EBE3400016820
:100AF00003020D317E34077B7E2400FF7A1F00162F
:100B00007E3400017A370014020D12CA3B7F30CACE
:100B1000B80BFD7416120CEA7AFBB039BFFFFF80E8
:100B20000C29BFFFFE120CEA7A3BB00B747EFBA0CF
:100B30007CBA147AFBB04CAA78E729BFFFFF9EF875
:100B40000003DA3B227A3700217E3400227E240023
:100B5000007E1B307E3400237E2400007A1B307E12
:100B60003400217E2400007E1B307E3400247E244D
:100B700000007A1B307E37002322CAF8740E7E7084
:100B800001120CFF7411120CEA7CFB30E5087411A1
:100B90007E7040120CFF7CBF30E20774116C77123C
:100BA0000CFFC202DAF822CAF8740E7E7002120C30
:100BB000FF7411120CEA7CFB30E50874117E704062
:100BC000120CFF7CBF30E20774116C77120CFFDA55
:100BD000F822CA3BCA787F30CAB8800B7EFBB07E51
:100BE0003B700B74120CFF29AFFFFF7CBA1439BFA6
:100BF000FFFF4CAA78E61BFDDA3B227EB30012B45D
:100C0000041B7EB30008B401147EB3000B700E7E8B
:100C1000B3000D70087E37000E4D336803020D31AE
:100C2000020D3F7EB30012B404097EB30008BEB0CB
:100C3000A16803020D317E18002C7A1F00167E3742
:100C4000000E7A370014020D127EB30012B40409AC
:100C50007EB30008BEB0216803020D317E18002C5F
:100C60007A1F00167E37000E7A370014020D23809B
:100C70001200000000000000000000000000000062
:100C80000000007D231B344D2278E6227EB300094C
:100C900024DF680A14680A0BB17809020C49020CB7
:100CA00023020CBF020D31CA797D7380077E3403A5
:100CB000E8120C6F7D371B744D3378F1DA79227EA0
:100CC000B30012B404097EB30008BEB02168030269
:100CD0000D31020D3F7CA77C7B0A5A2E5400201256
:100CE0000BD274117E7001020CFF7CABE5FC20E797
:100CF000FB7CBA4480F5FCE5FC20E7FBE5EC227CBC
:100D0000A77C7BE5FC20E7FB7CB7547FF5FC7AA150
:100D1000EC2274037AB3001374117E7040120CFF3E
:100D200002080774047AB3001374117E7040020C39
:100D3000FF74057AB3001374117E7060020CFFE437
:100D40007AB3001374117E7048020CFF020D310259
:100D50000D31283029000004003400FF0D6500012A
:0E0D600000110000004053544349535023003B
:00000001FF
